{
  "abi": [
    {
      "inputs": [
        {
          "internalType": "string",
          "name": "_ticketId",
          "type": "string"
        },
        {
          "internalType": "uint256",
          "name": "_price",
          "type": "uint256"
        },
        {
          "internalType": "bool",
          "name": "_isResellable",
          "type": "bool"
        }
      ],
      "name": "createTicket",
      "outputs": [],
      "stateMutability": "nonpayable",
      "type": "function"
    },
    {
      "inputs": [
        {
          "internalType": "string",
          "name": "",
          "type": "string"
        }
      ],
      "name": "tickets",
      "outputs": [
        {
          "internalType": "string",
          "name": "ticketId",
          "type": "string"
        },
        {
          "internalType": "address",
          "name": "owner",
          "type": "address"
        },
        {
          "internalType": "uint256",
          "name": "price",
          "type": "uint256"
        },
        {
          "internalType": "bool",
          "name": "isResellable",
          "type": "bool"
        }
      ],
      "stateMutability": "view",
      "type": "function"
    },
    {
      "inputs": [
        {
          "internalType": "string",
          "name": "_ticketId",
          "type": "string"
        },
        {
          "internalType": "address",
          "name": "_newOwner",
          "type": "address"
        }
      ],
      "name": "transferTicket",
      "outputs": [],
      "stateMutability": "nonpayable",
      "type": "function"
    }
  ],
  "devdoc": {
    "kind": "dev",
    "methods": {},
    "version": 1
  },
  "evm": {
    "assembly": "    /* \"Ticketing.sol\":57:646  contract Ticketing {... */\n  mstore(0x40, 0x80)\n  callvalue\n  dup1\n  iszero\n  tag_1\n  jumpi\n  revert(0x00, 0x00)\ntag_1:\n  pop\n  dataSize(sub_0)\n  dup1\n  dataOffset(sub_0)\n  0x00\n  codecopy\n  0x00\n  return\nstop\n\nsub_0: assembly {\n        /* \"Ticketing.sol\":57:646  contract Ticketing {... */\n      mstore(0x40, 0x80)\n      callvalue\n      dup1\n      iszero\n      tag_1\n      jumpi\n      revert(0x00, 0x00)\n    tag_1:\n      pop\n      jumpi(tag_2, lt(calldatasize, 0x04))\n      shr(0xe0, calldataload(0x00))\n      dup1\n      0x29ae0b7f\n      eq\n      tag_3\n      jumpi\n      dup1\n      0x6c4926a9\n      eq\n      tag_4\n      jumpi\n      dup1\n      0xf4b96cb0\n      eq\n      tag_5\n      jumpi\n    tag_2:\n      revert(0x00, 0x00)\n        /* \"Ticketing.sol\":204:244  mapping(string => Ticket) public tickets */\n    tag_3:\n      tag_6\n      0x04\n      dup1\n      calldatasize\n      sub\n      dup2\n      add\n      swap1\n      tag_7\n      swap2\n      swap1\n      tag_8\n      jump\t// in\n    tag_7:\n      tag_9\n      jump\t// in\n    tag_6:\n      mload(0x40)\n      tag_10\n      swap5\n      swap4\n      swap3\n      swap2\n      swap1\n      tag_11\n      jump\t// in\n    tag_10:\n      mload(0x40)\n      dup1\n      swap2\n      sub\n      swap1\n      return\n        /* \"Ticketing.sol\":251:428  function createTicket(string memory _ticketId, uint _price, bool _isResellable) public {... */\n    tag_4:\n      tag_12\n      0x04\n      dup1\n      calldatasize\n      sub\n      dup2\n      add\n      swap1\n      tag_13\n      swap2\n      swap1\n      tag_14\n      jump\t// in\n    tag_13:\n      tag_15\n      jump\t// in\n    tag_12:\n      stop\n        /* \"Ticketing.sol\":434:644  function transferTicket(string memory _ticketId, address _newOwner) public {... */\n    tag_5:\n      tag_16\n      0x04\n      dup1\n      calldatasize\n      sub\n      dup2\n      add\n      swap1\n      tag_17\n      swap2\n      swap1\n      tag_18\n      jump\t// in\n    tag_17:\n      tag_19\n      jump\t// in\n    tag_16:\n      stop\n        /* \"Ticketing.sol\":204:244  mapping(string => Ticket) public tickets */\n    tag_9:\n      0x00\n      dup2\n      dup1\n      mload\n      0x20\n      dup2\n      add\n      dup3\n      add\n      dup1\n      mload\n      dup5\n      dup3\n      mstore\n      0x20\n      dup4\n      add\n      0x20\n      dup6\n      add\n      keccak256\n      dup2\n      dup4\n      mstore\n      dup1\n      swap6\n      pop\n      pop\n      pop\n      pop\n      pop\n      pop\n      0x00\n      swap2\n      pop\n      swap1\n      pop\n      dup1\n      0x00\n      add\n      dup1\n      sload\n      tag_20\n      swap1\n      tag_21\n      jump\t// in\n    tag_20:\n      dup1\n      0x1f\n      add\n      0x20\n      dup1\n      swap2\n      div\n      mul\n      0x20\n      add\n      mload(0x40)\n      swap1\n      dup2\n      add\n      0x40\n      mstore\n      dup1\n      swap3\n      swap2\n      swap1\n      dup2\n      dup2\n      mstore\n      0x20\n      add\n      dup3\n      dup1\n      sload\n      tag_22\n      swap1\n      tag_21\n      jump\t// in\n    tag_22:\n      dup1\n      iszero\n      tag_23\n      jumpi\n      dup1\n      0x1f\n      lt\n      tag_24\n      jumpi\n      0x0100\n      dup1\n      dup4\n      sload\n      div\n      mul\n      dup4\n      mstore\n      swap2\n      0x20\n      add\n      swap2\n      jump(tag_23)\n    tag_24:\n      dup3\n      add\n      swap2\n      swap1\n      0x00\n      mstore\n      keccak256(0x00, 0x20)\n      swap1\n    tag_25:\n      dup2\n      sload\n      dup2\n      mstore\n      swap1\n      0x01\n      add\n      swap1\n      0x20\n      add\n      dup1\n      dup4\n      gt\n      tag_25\n      jumpi\n      dup3\n      swap1\n      sub\n      0x1f\n      and\n      dup3\n      add\n      swap2\n    tag_23:\n      pop\n      pop\n      pop\n      pop\n      pop\n      swap1\n      dup1\n      0x01\n      add\n      0x00\n      swap1\n      sload\n      swap1\n      0x0100\n      exp\n      swap1\n      div\n      0xffffffffffffffffffffffffffffffffffffffff\n      and\n      swap1\n      dup1\n      0x02\n      add\n      sload\n      swap1\n      dup1\n      0x03\n      add\n      0x00\n      swap1\n      sload\n      swap1\n      0x0100\n      exp\n      swap1\n      div\n      0xff\n      and\n      swap1\n      pop\n      dup5\n      jump\t// out\n        /* \"Ticketing.sol\":251:428  function createTicket(string memory _ticketId, uint _price, bool _isResellable) public {... */\n    tag_15:\n        /* \"Ticketing.sol\":369:421  Ticket(_ticketId, msg.sender, _price, _isResellable) */\n      mload(0x40)\n      dup1\n      0x80\n      add\n      0x40\n      mstore\n      dup1\n        /* \"Ticketing.sol\":376:385  _ticketId */\n      dup5\n        /* \"Ticketing.sol\":369:421  Ticket(_ticketId, msg.sender, _price, _isResellable) */\n      dup2\n      mstore\n      0x20\n      add\n        /* \"Ticketing.sol\":387:397  msg.sender */\n      caller\n        /* \"Ticketing.sol\":369:421  Ticket(_ticketId, msg.sender, _price, _isResellable) */\n      0xffffffffffffffffffffffffffffffffffffffff\n      and\n      dup2\n      mstore\n      0x20\n      add\n        /* \"Ticketing.sol\":399:405  _price */\n      dup4\n        /* \"Ticketing.sol\":369:421  Ticket(_ticketId, msg.sender, _price, _isResellable) */\n      dup2\n      mstore\n      0x20\n      add\n        /* \"Ticketing.sol\":407:420  _isResellable */\n      dup3\n        /* \"Ticketing.sol\":369:421  Ticket(_ticketId, msg.sender, _price, _isResellable) */\n      iszero\n      iszero\n      dup2\n      mstore\n      pop\n        /* \"Ticketing.sol\":348:355  tickets */\n      0x00\n        /* \"Ticketing.sol\":356:365  _ticketId */\n      dup5\n        /* \"Ticketing.sol\":348:366  tickets[_ticketId] */\n      mload(0x40)\n      tag_27\n      swap2\n      swap1\n      tag_28\n      jump\t// in\n    tag_27:\n      swap1\n      dup2\n      mstore\n      0x20\n      add\n      mload(0x40)\n      dup1\n      swap2\n      sub\n      swap1\n      keccak256\n        /* \"Ticketing.sol\":348:421  tickets[_ticketId] = Ticket(_ticketId, msg.sender, _price, _isResellable) */\n      0x00\n      dup3\n      add\n      mload\n      dup2\n      0x00\n      add\n      swap1\n      dup2\n      tag_29\n      swap2\n      swap1\n      tag_30\n      jump\t// in\n    tag_29:\n      pop\n      0x20\n      dup3\n      add\n      mload\n      dup2\n      0x01\n      add\n      exp(0x0100, 0x00)\n      dup2\n      sload\n      dup2\n      0xffffffffffffffffffffffffffffffffffffffff\n      mul\n      not\n      and\n      swap1\n      dup4\n      0xffffffffffffffffffffffffffffffffffffffff\n      and\n      mul\n      or\n      swap1\n      sstore\n      pop\n      0x40\n      dup3\n      add\n      mload\n      dup2\n      0x02\n      add\n      sstore\n      0x60\n      dup3\n      add\n      mload\n      dup2\n      0x03\n      add\n      exp(0x0100, 0x00)\n      dup2\n      sload\n      dup2\n      0xff\n      mul\n      not\n      and\n      swap1\n      dup4\n      iszero\n      iszero\n      mul\n      or\n      swap1\n      sstore\n      pop\n      swap1\n      pop\n      pop\n        /* \"Ticketing.sol\":251:428  function createTicket(string memory _ticketId, uint _price, bool _isResellable) public {... */\n      pop\n      pop\n      pop\n      jump\t// out\n        /* \"Ticketing.sol\":434:644  function transferTicket(string memory _ticketId, address _newOwner) public {... */\n    tag_19:\n        /* \"Ticketing.sol\":555:565  msg.sender */\n      caller\n        /* \"Ticketing.sol\":527:565  tickets[_ticketId].owner == msg.sender */\n      0xffffffffffffffffffffffffffffffffffffffff\n      and\n        /* \"Ticketing.sol\":527:534  tickets */\n      0x00\n        /* \"Ticketing.sol\":535:544  _ticketId */\n      dup4\n        /* \"Ticketing.sol\":527:545  tickets[_ticketId] */\n      mload(0x40)\n      tag_32\n      swap2\n      swap1\n      tag_28\n      jump\t// in\n    tag_32:\n      swap1\n      dup2\n      mstore\n      0x20\n      add\n      mload(0x40)\n      dup1\n      swap2\n      sub\n      swap1\n      keccak256\n        /* \"Ticketing.sol\":527:551  tickets[_ticketId].owner */\n      0x01\n      add\n      0x00\n      swap1\n      sload\n      swap1\n      0x0100\n      exp\n      swap1\n      div\n      0xffffffffffffffffffffffffffffffffffffffff\n      and\n        /* \"Ticketing.sol\":527:565  tickets[_ticketId].owner == msg.sender */\n      0xffffffffffffffffffffffffffffffffffffffff\n      and\n      eq\n        /* \"Ticketing.sol\":519:591  require(tickets[_ticketId].owner == msg.sender, \"You are not the owner\") */\n      tag_33\n      jumpi\n      mload(0x40)\n      0x08c379a000000000000000000000000000000000000000000000000000000000\n      dup2\n      mstore\n      0x04\n      add\n      tag_34\n      swap1\n      tag_35\n      jump\t// in\n    tag_34:\n      mload(0x40)\n      dup1\n      swap2\n      sub\n      swap1\n      revert\n    tag_33:\n        /* \"Ticketing.sol\":628:637  _newOwner */\n      dup1\n        /* \"Ticketing.sol\":601:608  tickets */\n      0x00\n        /* \"Ticketing.sol\":609:618  _ticketId */\n      dup4\n        /* \"Ticketing.sol\":601:619  tickets[_ticketId] */\n      mload(0x40)\n      tag_36\n      swap2\n      swap1\n      tag_28\n      jump\t// in\n    tag_36:\n      swap1\n      dup2\n      mstore\n      0x20\n      add\n      mload(0x40)\n      dup1\n      swap2\n      sub\n      swap1\n      keccak256\n        /* \"Ticketing.sol\":601:625  tickets[_ticketId].owner */\n      0x01\n      add\n      0x00\n        /* \"Ticketing.sol\":601:637  tickets[_ticketId].owner = _newOwner */\n      0x0100\n      exp\n      dup2\n      sload\n      dup2\n      0xffffffffffffffffffffffffffffffffffffffff\n      mul\n      not\n      and\n      swap1\n      dup4\n      0xffffffffffffffffffffffffffffffffffffffff\n      and\n      mul\n      or\n      swap1\n      sstore\n      pop\n        /* \"Ticketing.sol\":434:644  function transferTicket(string memory _ticketId, address _newOwner) public {... */\n      pop\n      pop\n      jump\t// out\n        /* \"#utility.yul\":7:82   */\n    tag_37:\n        /* \"#utility.yul\":40:46   */\n      0x00\n        /* \"#utility.yul\":73:75   */\n      0x40\n        /* \"#utility.yul\":67:76   */\n      mload\n        /* \"#utility.yul\":57:76   */\n      swap1\n      pop\n        /* \"#utility.yul\":7:82   */\n      swap1\n      jump\t// out\n        /* \"#utility.yul\":88:205   */\n    tag_38:\n        /* \"#utility.yul\":197:198   */\n      0x00\n        /* \"#utility.yul\":194:195   */\n      0x00\n        /* \"#utility.yul\":187:199   */\n      revert\n        /* \"#utility.yul\":211:328   */\n    tag_39:\n        /* \"#utility.yul\":320:321   */\n      0x00\n        /* \"#utility.yul\":317:318   */\n      0x00\n        /* \"#utility.yul\":310:322   */\n      revert\n        /* \"#utility.yul\":334:451   */\n    tag_40:\n        /* \"#utility.yul\":443:444   */\n      0x00\n        /* \"#utility.yul\":440:441   */\n      0x00\n        /* \"#utility.yul\":433:445   */\n      revert\n        /* \"#utility.yul\":457:574   */\n    tag_41:\n        /* \"#utility.yul\":566:567   */\n      0x00\n        /* \"#utility.yul\":563:564   */\n      0x00\n        /* \"#utility.yul\":556:568   */\n      revert\n        /* \"#utility.yul\":580:682   */\n    tag_42:\n        /* \"#utility.yul\":621:627   */\n      0x00\n        /* \"#utility.yul\":672:674   */\n      0x1f\n        /* \"#utility.yul\":668:675   */\n      not\n        /* \"#utility.yul\":663:665   */\n      0x1f\n        /* \"#utility.yul\":656:661   */\n      dup4\n        /* \"#utility.yul\":652:666   */\n      add\n        /* \"#utility.yul\":648:676   */\n      and\n        /* \"#utility.yul\":638:676   */\n      swap1\n      pop\n        /* \"#utility.yul\":580:682   */\n      swap2\n      swap1\n      pop\n      jump\t// out\n        /* \"#utility.yul\":688:868   */\n    tag_43:\n        /* \"#utility.yul\":736:813   */\n      0x4e487b7100000000000000000000000000000000000000000000000000000000\n        /* \"#utility.yul\":733:734   */\n      0x00\n        /* \"#utility.yul\":726:814   */\n      mstore\n        /* \"#utility.yul\":833:837   */\n      0x41\n        /* \"#utility.yul\":830:831   */\n      0x04\n        /* \"#utility.yul\":823:838   */\n      mstore\n        /* \"#utility.yul\":857:861   */\n      0x24\n        /* \"#utility.yul\":854:855   */\n      0x00\n        /* \"#utility.yul\":847:862   */\n      revert\n        /* \"#utility.yul\":874:1155   */\n    tag_44:\n        /* \"#utility.yul\":957:984   */\n      tag_96\n        /* \"#utility.yul\":979:983   */\n      dup3\n        /* \"#utility.yul\":957:984   */\n      tag_42\n      jump\t// in\n    tag_96:\n        /* \"#utility.yul\":949:955   */\n      dup2\n        /* \"#utility.yul\":945:985   */\n      add\n        /* \"#utility.yul\":1087:1093   */\n      dup2\n        /* \"#utility.yul\":1075:1085   */\n      dup2\n        /* \"#utility.yul\":1072:1094   */\n      lt\n        /* \"#utility.yul\":1051:1069   */\n      0xffffffffffffffff\n        /* \"#utility.yul\":1039:1049   */\n      dup3\n        /* \"#utility.yul\":1036:1070   */\n      gt\n        /* \"#utility.yul\":1033:1095   */\n      or\n        /* \"#utility.yul\":1030:1118   */\n      iszero\n      tag_97\n      jumpi\n        /* \"#utility.yul\":1098:1116   */\n      tag_98\n      tag_43\n      jump\t// in\n    tag_98:\n        /* \"#utility.yul\":1030:1118   */\n    tag_97:\n        /* \"#utility.yul\":1138:1148   */\n      dup1\n        /* \"#utility.yul\":1134:1136   */\n      0x40\n        /* \"#utility.yul\":1127:1149   */\n      mstore\n        /* \"#utility.yul\":917:1155   */\n      pop\n        /* \"#utility.yul\":874:1155   */\n      pop\n      pop\n      jump\t// out\n        /* \"#utility.yul\":1161:1290   */\n    tag_45:\n        /* \"#utility.yul\":1195:1201   */\n      0x00\n        /* \"#utility.yul\":1222:1242   */\n      tag_100\n      tag_37\n      jump\t// in\n    tag_100:\n        /* \"#utility.yul\":1212:1242   */\n      swap1\n      pop\n        /* \"#utility.yul\":1251:1284   */\n      tag_101\n        /* \"#utility.yul\":1279:1283   */\n      dup3\n        /* \"#utility.yul\":1271:1277   */\n      dup3\n        /* \"#utility.yul\":1251:1284   */\n      tag_44\n      jump\t// in\n    tag_101:\n        /* \"#utility.yul\":1161:1290   */\n      swap2\n      swap1\n      pop\n      jump\t// out\n        /* \"#utility.yul\":1296:1604   */\n    tag_46:\n        /* \"#utility.yul\":1358:1362   */\n      0x00\n        /* \"#utility.yul\":1448:1466   */\n      0xffffffffffffffff\n        /* \"#utility.yul\":1440:1446   */\n      dup3\n        /* \"#utility.yul\":1437:1467   */\n      gt\n        /* \"#utility.yul\":1434:1490   */\n      iszero\n      tag_103\n      jumpi\n        /* \"#utility.yul\":1470:1488   */\n      tag_104\n      tag_43\n      jump\t// in\n    tag_104:\n        /* \"#utility.yul\":1434:1490   */\n    tag_103:\n        /* \"#utility.yul\":1508:1537   */\n      tag_105\n        /* \"#utility.yul\":1530:1536   */\n      dup3\n        /* \"#utility.yul\":1508:1537   */\n      tag_42\n      jump\t// in\n    tag_105:\n        /* \"#utility.yul\":1500:1537   */\n      swap1\n      pop\n        /* \"#utility.yul\":1592:1596   */\n      0x20\n        /* \"#utility.yul\":1586:1590   */\n      dup2\n        /* \"#utility.yul\":1582:1597   */\n      add\n        /* \"#utility.yul\":1574:1597   */\n      swap1\n      pop\n        /* \"#utility.yul\":1296:1604   */\n      swap2\n      swap1\n      pop\n      jump\t// out\n        /* \"#utility.yul\":1610:1758   */\n    tag_47:\n        /* \"#utility.yul\":1708:1714   */\n      dup3\n        /* \"#utility.yul\":1703:1706   */\n      dup2\n        /* \"#utility.yul\":1698:1701   */\n      dup4\n        /* \"#utility.yul\":1685:1715   */\n      calldatacopy\n        /* \"#utility.yul\":1749:1750   */\n      0x00\n        /* \"#utility.yul\":1740:1746   */\n      dup4\n        /* \"#utility.yul\":1735:1738   */\n      dup4\n        /* \"#utility.yul\":1731:1747   */\n      add\n        /* \"#utility.yul\":1724:1751   */\n      mstore\n        /* \"#utility.yul\":1610:1758   */\n      pop\n      pop\n      pop\n      jump\t// out\n        /* \"#utility.yul\":1764:2189   */\n    tag_48:\n        /* \"#utility.yul\":1842:1847   */\n      0x00\n        /* \"#utility.yul\":1867:1933   */\n      tag_108\n        /* \"#utility.yul\":1883:1932   */\n      tag_109\n        /* \"#utility.yul\":1925:1931   */\n      dup5\n        /* \"#utility.yul\":1883:1932   */\n      tag_46\n      jump\t// in\n    tag_109:\n        /* \"#utility.yul\":1867:1933   */\n      tag_45\n      jump\t// in\n    tag_108:\n        /* \"#utility.yul\":1858:1933   */\n      swap1\n      pop\n        /* \"#utility.yul\":1956:1962   */\n      dup3\n        /* \"#utility.yul\":1949:1954   */\n      dup2\n        /* \"#utility.yul\":1942:1963   */\n      mstore\n        /* \"#utility.yul\":1994:1998   */\n      0x20\n        /* \"#utility.yul\":1987:1992   */\n      dup2\n        /* \"#utility.yul\":1983:1999   */\n      add\n        /* \"#utility.yul\":2032:2035   */\n      dup5\n        /* \"#utility.yul\":2023:2029   */\n      dup5\n        /* \"#utility.yul\":2018:2021   */\n      dup5\n        /* \"#utility.yul\":2014:2030   */\n      add\n        /* \"#utility.yul\":2011:2036   */\n      gt\n        /* \"#utility.yul\":2008:2120   */\n      iszero\n      tag_110\n      jumpi\n        /* \"#utility.yul\":2039:2118   */\n      tag_111\n      tag_41\n      jump\t// in\n    tag_111:\n        /* \"#utility.yul\":2008:2120   */\n    tag_110:\n        /* \"#utility.yul\":2129:2183   */\n      tag_112\n        /* \"#utility.yul\":2176:2182   */\n      dup5\n        /* \"#utility.yul\":2171:2174   */\n      dup3\n        /* \"#utility.yul\":2166:2169   */\n      dup6\n        /* \"#utility.yul\":2129:2183   */\n      tag_47\n      jump\t// in\n    tag_112:\n        /* \"#utility.yul\":1848:2189   */\n      pop\n        /* \"#utility.yul\":1764:2189   */\n      swap4\n      swap3\n      pop\n      pop\n      pop\n      jump\t// out\n        /* \"#utility.yul\":2209:2549   */\n    tag_49:\n        /* \"#utility.yul\":2265:2270   */\n      0x00\n        /* \"#utility.yul\":2314:2317   */\n      dup3\n        /* \"#utility.yul\":2307:2311   */\n      0x1f\n        /* \"#utility.yul\":2299:2305   */\n      dup4\n        /* \"#utility.yul\":2295:2312   */\n      add\n        /* \"#utility.yul\":2291:2318   */\n      slt\n        /* \"#utility.yul\":2281:2403   */\n      tag_114\n      jumpi\n        /* \"#utility.yul\":2322:2401   */\n      tag_115\n      tag_40\n      jump\t// in\n    tag_115:\n        /* \"#utility.yul\":2281:2403   */\n    tag_114:\n        /* \"#utility.yul\":2439:2445   */\n      dup2\n        /* \"#utility.yul\":2426:2446   */\n      calldataload\n        /* \"#utility.yul\":2464:2543   */\n      tag_116\n        /* \"#utility.yul\":2539:2542   */\n      dup5\n        /* \"#utility.yul\":2531:2537   */\n      dup3\n        /* \"#utility.yul\":2524:2528   */\n      0x20\n        /* \"#utility.yul\":2516:2522   */\n      dup7\n        /* \"#utility.yul\":2512:2529   */\n      add\n        /* \"#utility.yul\":2464:2543   */\n      tag_48\n      jump\t// in\n    tag_116:\n        /* \"#utility.yul\":2455:2543   */\n      swap2\n      pop\n        /* \"#utility.yul\":2271:2549   */\n      pop\n        /* \"#utility.yul\":2209:2549   */\n      swap3\n      swap2\n      pop\n      pop\n      jump\t// out\n        /* \"#utility.yul\":2555:3064   */\n    tag_8:\n        /* \"#utility.yul\":2624:2630   */\n      0x00\n        /* \"#utility.yul\":2673:2675   */\n      0x20\n        /* \"#utility.yul\":2661:2670   */\n      dup3\n        /* \"#utility.yul\":2652:2659   */\n      dup5\n        /* \"#utility.yul\":2648:2671   */\n      sub\n        /* \"#utility.yul\":2644:2676   */\n      slt\n        /* \"#utility.yul\":2641:2760   */\n      iszero\n      tag_118\n      jumpi\n        /* \"#utility.yul\":2679:2758   */\n      tag_119\n      tag_38\n      jump\t// in\n    tag_119:\n        /* \"#utility.yul\":2641:2760   */\n    tag_118:\n        /* \"#utility.yul\":2827:2828   */\n      0x00\n        /* \"#utility.yul\":2816:2825   */\n      dup3\n        /* \"#utility.yul\":2812:2829   */\n      add\n        /* \"#utility.yul\":2799:2830   */\n      calldataload\n        /* \"#utility.yul\":2857:2875   */\n      0xffffffffffffffff\n        /* \"#utility.yul\":2849:2855   */\n      dup2\n        /* \"#utility.yul\":2846:2876   */\n      gt\n        /* \"#utility.yul\":2843:2960   */\n      iszero\n      tag_120\n      jumpi\n        /* \"#utility.yul\":2879:2958   */\n      tag_121\n      tag_39\n      jump\t// in\n    tag_121:\n        /* \"#utility.yul\":2843:2960   */\n    tag_120:\n        /* \"#utility.yul\":2984:3047   */\n      tag_122\n        /* \"#utility.yul\":3039:3046   */\n      dup5\n        /* \"#utility.yul\":3030:3036   */\n      dup3\n        /* \"#utility.yul\":3019:3028   */\n      dup6\n        /* \"#utility.yul\":3015:3037   */\n      add\n        /* \"#utility.yul\":2984:3047   */\n      tag_49\n      jump\t// in\n    tag_122:\n        /* \"#utility.yul\":2974:3047   */\n      swap2\n      pop\n        /* \"#utility.yul\":2770:3057   */\n      pop\n        /* \"#utility.yul\":2555:3064   */\n      swap3\n      swap2\n      pop\n      pop\n      jump\t// out\n        /* \"#utility.yul\":3070:3169   */\n    tag_50:\n        /* \"#utility.yul\":3122:3128   */\n      0x00\n        /* \"#utility.yul\":3156:3161   */\n      dup2\n        /* \"#utility.yul\":3150:3162   */\n      mload\n        /* \"#utility.yul\":3140:3162   */\n      swap1\n      pop\n        /* \"#utility.yul\":3070:3169   */\n      swap2\n      swap1\n      pop\n      jump\t// out\n        /* \"#utility.yul\":3175:3344   */\n    tag_51:\n        /* \"#utility.yul\":3259:3270   */\n      0x00\n        /* \"#utility.yul\":3293:3299   */\n      dup3\n        /* \"#utility.yul\":3288:3291   */\n      dup3\n        /* \"#utility.yul\":3281:3300   */\n      mstore\n        /* \"#utility.yul\":3333:3337   */\n      0x20\n        /* \"#utility.yul\":3328:3331   */\n      dup3\n        /* \"#utility.yul\":3324:3338   */\n      add\n        /* \"#utility.yul\":3309:3338   */\n      swap1\n      pop\n        /* \"#utility.yul\":3175:3344   */\n      swap3\n      swap2\n      pop\n      pop\n      jump\t// out\n        /* \"#utility.yul\":3350:3489   */\n    tag_52:\n        /* \"#utility.yul\":3439:3445   */\n      dup3\n        /* \"#utility.yul\":3434:3437   */\n      dup2\n        /* \"#utility.yul\":3429:3432   */\n      dup4\n        /* \"#utility.yul\":3423:3446   */\n      mcopy\n        /* \"#utility.yul\":3480:3481   */\n      0x00\n        /* \"#utility.yul\":3471:3477   */\n      dup4\n        /* \"#utility.yul\":3466:3469   */\n      dup4\n        /* \"#utility.yul\":3462:3478   */\n      add\n        /* \"#utility.yul\":3455:3482   */\n      mstore\n        /* \"#utility.yul\":3350:3489   */\n      pop\n      pop\n      pop\n      jump\t// out\n        /* \"#utility.yul\":3495:3872   */\n    tag_53:\n        /* \"#utility.yul\":3583:3586   */\n      0x00\n        /* \"#utility.yul\":3611:3650   */\n      tag_127\n        /* \"#utility.yul\":3644:3649   */\n      dup3\n        /* \"#utility.yul\":3611:3650   */\n      tag_50\n      jump\t// in\n    tag_127:\n        /* \"#utility.yul\":3666:3737   */\n      tag_128\n        /* \"#utility.yul\":3730:3736   */\n      dup2\n        /* \"#utility.yul\":3725:3728   */\n      dup6\n        /* \"#utility.yul\":3666:3737   */\n      tag_51\n      jump\t// in\n    tag_128:\n        /* \"#utility.yul\":3659:3737   */\n      swap4\n      pop\n        /* \"#utility.yul\":3746:3811   */\n      tag_129\n        /* \"#utility.yul\":3804:3810   */\n      dup2\n        /* \"#utility.yul\":3799:3802   */\n      dup6\n        /* \"#utility.yul\":3792:3796   */\n      0x20\n        /* \"#utility.yul\":3785:3790   */\n      dup7\n        /* \"#utility.yul\":3781:3797   */\n      add\n        /* \"#utility.yul\":3746:3811   */\n      tag_52\n      jump\t// in\n    tag_129:\n        /* \"#utility.yul\":3836:3865   */\n      tag_130\n        /* \"#utility.yul\":3858:3864   */\n      dup2\n        /* \"#utility.yul\":3836:3865   */\n      tag_42\n      jump\t// in\n    tag_130:\n        /* \"#utility.yul\":3831:3834   */\n      dup5\n        /* \"#utility.yul\":3827:3866   */\n      add\n        /* \"#utility.yul\":3820:3866   */\n      swap2\n      pop\n        /* \"#utility.yul\":3587:3872   */\n      pop\n        /* \"#utility.yul\":3495:3872   */\n      swap3\n      swap2\n      pop\n      pop\n      jump\t// out\n        /* \"#utility.yul\":3878:4004   */\n    tag_54:\n        /* \"#utility.yul\":3915:3922   */\n      0x00\n        /* \"#utility.yul\":3955:3997   */\n      0xffffffffffffffffffffffffffffffffffffffff\n        /* \"#utility.yul\":3948:3953   */\n      dup3\n        /* \"#utility.yul\":3944:3998   */\n      and\n        /* \"#utility.yul\":3933:3998   */\n      swap1\n      pop\n        /* \"#utility.yul\":3878:4004   */\n      swap2\n      swap1\n      pop\n      jump\t// out\n        /* \"#utility.yul\":4010:4106   */\n    tag_55:\n        /* \"#utility.yul\":4047:4054   */\n      0x00\n        /* \"#utility.yul\":4076:4100   */\n      tag_133\n        /* \"#utility.yul\":4094:4099   */\n      dup3\n        /* \"#utility.yul\":4076:4100   */\n      tag_54\n      jump\t// in\n    tag_133:\n        /* \"#utility.yul\":4065:4100   */\n      swap1\n      pop\n        /* \"#utility.yul\":4010:4106   */\n      swap2\n      swap1\n      pop\n      jump\t// out\n        /* \"#utility.yul\":4112:4230   */\n    tag_56:\n        /* \"#utility.yul\":4199:4223   */\n      tag_135\n        /* \"#utility.yul\":4217:4222   */\n      dup2\n        /* \"#utility.yul\":4199:4223   */\n      tag_55\n      jump\t// in\n    tag_135:\n        /* \"#utility.yul\":4194:4197   */\n      dup3\n        /* \"#utility.yul\":4187:4224   */\n      mstore\n        /* \"#utility.yul\":4112:4230   */\n      pop\n      pop\n      jump\t// out\n        /* \"#utility.yul\":4236:4313   */\n    tag_57:\n        /* \"#utility.yul\":4273:4280   */\n      0x00\n        /* \"#utility.yul\":4302:4307   */\n      dup2\n        /* \"#utility.yul\":4291:4307   */\n      swap1\n      pop\n        /* \"#utility.yul\":4236:4313   */\n      swap2\n      swap1\n      pop\n      jump\t// out\n        /* \"#utility.yul\":4319:4437   */\n    tag_58:\n        /* \"#utility.yul\":4406:4430   */\n      tag_138\n        /* \"#utility.yul\":4424:4429   */\n      dup2\n        /* \"#utility.yul\":4406:4430   */\n      tag_57\n      jump\t// in\n    tag_138:\n        /* \"#utility.yul\":4401:4404   */\n      dup3\n        /* \"#utility.yul\":4394:4431   */\n      mstore\n        /* \"#utility.yul\":4319:4437   */\n      pop\n      pop\n      jump\t// out\n        /* \"#utility.yul\":4443:4533   */\n    tag_59:\n        /* \"#utility.yul\":4477:4484   */\n      0x00\n        /* \"#utility.yul\":4520:4525   */\n      dup2\n        /* \"#utility.yul\":4513:4526   */\n      iszero\n        /* \"#utility.yul\":4506:4527   */\n      iszero\n        /* \"#utility.yul\":4495:4527   */\n      swap1\n      pop\n        /* \"#utility.yul\":4443:4533   */\n      swap2\n      swap1\n      pop\n      jump\t// out\n        /* \"#utility.yul\":4539:4648   */\n    tag_60:\n        /* \"#utility.yul\":4620:4641   */\n      tag_141\n        /* \"#utility.yul\":4635:4640   */\n      dup2\n        /* \"#utility.yul\":4620:4641   */\n      tag_59\n      jump\t// in\n    tag_141:\n        /* \"#utility.yul\":4615:4618   */\n      dup3\n        /* \"#utility.yul\":4608:4642   */\n      mstore\n        /* \"#utility.yul\":4539:4648   */\n      pop\n      pop\n      jump\t// out\n        /* \"#utility.yul\":4654:5286   */\n    tag_11:\n        /* \"#utility.yul\":4845:4849   */\n      0x00\n        /* \"#utility.yul\":4883:4886   */\n      0x80\n        /* \"#utility.yul\":4872:4881   */\n      dup3\n        /* \"#utility.yul\":4868:4887   */\n      add\n        /* \"#utility.yul\":4860:4887   */\n      swap1\n      pop\n        /* \"#utility.yul\":4933:4942   */\n      dup2\n        /* \"#utility.yul\":4927:4931   */\n      dup2\n        /* \"#utility.yul\":4923:4943   */\n      sub\n        /* \"#utility.yul\":4919:4920   */\n      0x00\n        /* \"#utility.yul\":4908:4917   */\n      dup4\n        /* \"#utility.yul\":4904:4921   */\n      add\n        /* \"#utility.yul\":4897:4944   */\n      mstore\n        /* \"#utility.yul\":4961:5039   */\n      tag_143\n        /* \"#utility.yul\":5034:5038   */\n      dup2\n        /* \"#utility.yul\":5025:5031   */\n      dup8\n        /* \"#utility.yul\":4961:5039   */\n      tag_53\n      jump\t// in\n    tag_143:\n        /* \"#utility.yul\":4953:5039   */\n      swap1\n      pop\n        /* \"#utility.yul\":5049:5121   */\n      tag_144\n        /* \"#utility.yul\":5117:5119   */\n      0x20\n        /* \"#utility.yul\":5106:5115   */\n      dup4\n        /* \"#utility.yul\":5102:5120   */\n      add\n        /* \"#utility.yul\":5093:5099   */\n      dup7\n        /* \"#utility.yul\":5049:5121   */\n      tag_56\n      jump\t// in\n    tag_144:\n        /* \"#utility.yul\":5131:5203   */\n      tag_145\n        /* \"#utility.yul\":5199:5201   */\n      0x40\n        /* \"#utility.yul\":5188:5197   */\n      dup4\n        /* \"#utility.yul\":5184:5202   */\n      add\n        /* \"#utility.yul\":5175:5181   */\n      dup6\n        /* \"#utility.yul\":5131:5203   */\n      tag_58\n      jump\t// in\n    tag_145:\n        /* \"#utility.yul\":5213:5279   */\n      tag_146\n        /* \"#utility.yul\":5275:5277   */\n      0x60\n        /* \"#utility.yul\":5264:5273   */\n      dup4\n        /* \"#utility.yul\":5260:5278   */\n      add\n        /* \"#utility.yul\":5251:5257   */\n      dup5\n        /* \"#utility.yul\":5213:5279   */\n      tag_60\n      jump\t// in\n    tag_146:\n        /* \"#utility.yul\":4654:5286   */\n      swap6\n      swap5\n      pop\n      pop\n      pop\n      pop\n      pop\n      jump\t// out\n        /* \"#utility.yul\":5292:5414   */\n    tag_61:\n        /* \"#utility.yul\":5365:5389   */\n      tag_148\n        /* \"#utility.yul\":5383:5388   */\n      dup2\n        /* \"#utility.yul\":5365:5389   */\n      tag_57\n      jump\t// in\n    tag_148:\n        /* \"#utility.yul\":5358:5363   */\n      dup2\n        /* \"#utility.yul\":5355:5390   */\n      eq\n        /* \"#utility.yul\":5345:5408   */\n      tag_149\n      jumpi\n        /* \"#utility.yul\":5404:5405   */\n      0x00\n        /* \"#utility.yul\":5401:5402   */\n      0x00\n        /* \"#utility.yul\":5394:5406   */\n      revert\n        /* \"#utility.yul\":5345:5408   */\n    tag_149:\n        /* \"#utility.yul\":5292:5414   */\n      pop\n      jump\t// out\n        /* \"#utility.yul\":5420:5559   */\n    tag_62:\n        /* \"#utility.yul\":5466:5471   */\n      0x00\n        /* \"#utility.yul\":5504:5510   */\n      dup2\n        /* \"#utility.yul\":5491:5511   */\n      calldataload\n        /* \"#utility.yul\":5482:5511   */\n      swap1\n      pop\n        /* \"#utility.yul\":5520:5553   */\n      tag_151\n        /* \"#utility.yul\":5547:5552   */\n      dup2\n        /* \"#utility.yul\":5520:5553   */\n      tag_61\n      jump\t// in\n    tag_151:\n        /* \"#utility.yul\":5420:5559   */\n      swap3\n      swap2\n      pop\n      pop\n      jump\t// out\n        /* \"#utility.yul\":5565:5681   */\n    tag_63:\n        /* \"#utility.yul\":5635:5656   */\n      tag_153\n        /* \"#utility.yul\":5650:5655   */\n      dup2\n        /* \"#utility.yul\":5635:5656   */\n      tag_59\n      jump\t// in\n    tag_153:\n        /* \"#utility.yul\":5628:5633   */\n      dup2\n        /* \"#utility.yul\":5625:5657   */\n      eq\n        /* \"#utility.yul\":5615:5675   */\n      tag_154\n      jumpi\n        /* \"#utility.yul\":5671:5672   */\n      0x00\n        /* \"#utility.yul\":5668:5669   */\n      0x00\n        /* \"#utility.yul\":5661:5673   */\n      revert\n        /* \"#utility.yul\":5615:5675   */\n    tag_154:\n        /* \"#utility.yul\":5565:5681   */\n      pop\n      jump\t// out\n        /* \"#utility.yul\":5687:5820   */\n    tag_64:\n        /* \"#utility.yul\":5730:5735   */\n      0x00\n        /* \"#utility.yul\":5768:5774   */\n      dup2\n        /* \"#utility.yul\":5755:5775   */\n      calldataload\n        /* \"#utility.yul\":5746:5775   */\n      swap1\n      pop\n        /* \"#utility.yul\":5784:5814   */\n      tag_156\n        /* \"#utility.yul\":5808:5813   */\n      dup2\n        /* \"#utility.yul\":5784:5814   */\n      tag_63\n      jump\t// in\n    tag_156:\n        /* \"#utility.yul\":5687:5820   */\n      swap3\n      swap2\n      pop\n      pop\n      jump\t// out\n        /* \"#utility.yul\":5826:6619   */\n    tag_14:\n        /* \"#utility.yul\":5910:5916   */\n      0x00\n        /* \"#utility.yul\":5918:5924   */\n      0x00\n        /* \"#utility.yul\":5926:5932   */\n      0x00\n        /* \"#utility.yul\":5975:5977   */\n      0x60\n        /* \"#utility.yul\":5963:5972   */\n      dup5\n        /* \"#utility.yul\":5954:5961   */\n      dup7\n        /* \"#utility.yul\":5950:5973   */\n      sub\n        /* \"#utility.yul\":5946:5978   */\n      slt\n        /* \"#utility.yul\":5943:6062   */\n      iszero\n      tag_158\n      jumpi\n        /* \"#utility.yul\":5981:6060   */\n      tag_159\n      tag_38\n      jump\t// in\n    tag_159:\n        /* \"#utility.yul\":5943:6062   */\n    tag_158:\n        /* \"#utility.yul\":6129:6130   */\n      0x00\n        /* \"#utility.yul\":6118:6127   */\n      dup5\n        /* \"#utility.yul\":6114:6131   */\n      add\n        /* \"#utility.yul\":6101:6132   */\n      calldataload\n        /* \"#utility.yul\":6159:6177   */\n      0xffffffffffffffff\n        /* \"#utility.yul\":6151:6157   */\n      dup2\n        /* \"#utility.yul\":6148:6178   */\n      gt\n        /* \"#utility.yul\":6145:6262   */\n      iszero\n      tag_160\n      jumpi\n        /* \"#utility.yul\":6181:6260   */\n      tag_161\n      tag_39\n      jump\t// in\n    tag_161:\n        /* \"#utility.yul\":6145:6262   */\n    tag_160:\n        /* \"#utility.yul\":6286:6349   */\n      tag_162\n        /* \"#utility.yul\":6341:6348   */\n      dup7\n        /* \"#utility.yul\":6332:6338   */\n      dup3\n        /* \"#utility.yul\":6321:6330   */\n      dup8\n        /* \"#utility.yul\":6317:6339   */\n      add\n        /* \"#utility.yul\":6286:6349   */\n      tag_49\n      jump\t// in\n    tag_162:\n        /* \"#utility.yul\":6276:6349   */\n      swap4\n      pop\n        /* \"#utility.yul\":6072:6359   */\n      pop\n        /* \"#utility.yul\":6398:6400   */\n      0x20\n        /* \"#utility.yul\":6424:6477   */\n      tag_163\n        /* \"#utility.yul\":6469:6476   */\n      dup7\n        /* \"#utility.yul\":6460:6466   */\n      dup3\n        /* \"#utility.yul\":6449:6458   */\n      dup8\n        /* \"#utility.yul\":6445:6467   */\n      add\n        /* \"#utility.yul\":6424:6477   */\n      tag_62\n      jump\t// in\n    tag_163:\n        /* \"#utility.yul\":6414:6477   */\n      swap3\n      pop\n        /* \"#utility.yul\":6369:6487   */\n      pop\n        /* \"#utility.yul\":6526:6528   */\n      0x40\n        /* \"#utility.yul\":6552:6602   */\n      tag_164\n        /* \"#utility.yul\":6594:6601   */\n      dup7\n        /* \"#utility.yul\":6585:6591   */\n      dup3\n        /* \"#utility.yul\":6574:6583   */\n      dup8\n        /* \"#utility.yul\":6570:6592   */\n      add\n        /* \"#utility.yul\":6552:6602   */\n      tag_64\n      jump\t// in\n    tag_164:\n        /* \"#utility.yul\":6542:6602   */\n      swap2\n      pop\n        /* \"#utility.yul\":6497:6612   */\n      pop\n        /* \"#utility.yul\":5826:6619   */\n      swap3\n      pop\n      swap3\n      pop\n      swap3\n      jump\t// out\n        /* \"#utility.yul\":6625:6747   */\n    tag_65:\n        /* \"#utility.yul\":6698:6722   */\n      tag_166\n        /* \"#utility.yul\":6716:6721   */\n      dup2\n        /* \"#utility.yul\":6698:6722   */\n      tag_55\n      jump\t// in\n    tag_166:\n        /* \"#utility.yul\":6691:6696   */\n      dup2\n        /* \"#utility.yul\":6688:6723   */\n      eq\n        /* \"#utility.yul\":6678:6741   */\n      tag_167\n      jumpi\n        /* \"#utility.yul\":6737:6738   */\n      0x00\n        /* \"#utility.yul\":6734:6735   */\n      0x00\n        /* \"#utility.yul\":6727:6739   */\n      revert\n        /* \"#utility.yul\":6678:6741   */\n    tag_167:\n        /* \"#utility.yul\":6625:6747   */\n      pop\n      jump\t// out\n        /* \"#utility.yul\":6753:6892   */\n    tag_66:\n        /* \"#utility.yul\":6799:6804   */\n      0x00\n        /* \"#utility.yul\":6837:6843   */\n      dup2\n        /* \"#utility.yul\":6824:6844   */\n      calldataload\n        /* \"#utility.yul\":6815:6844   */\n      swap1\n      pop\n        /* \"#utility.yul\":6853:6886   */\n      tag_169\n        /* \"#utility.yul\":6880:6885   */\n      dup2\n        /* \"#utility.yul\":6853:6886   */\n      tag_65\n      jump\t// in\n    tag_169:\n        /* \"#utility.yul\":6753:6892   */\n      swap3\n      swap2\n      pop\n      pop\n      jump\t// out\n        /* \"#utility.yul\":6898:7552   */\n    tag_18:\n        /* \"#utility.yul\":6976:6982   */\n      0x00\n        /* \"#utility.yul\":6984:6990   */\n      0x00\n        /* \"#utility.yul\":7033:7035   */\n      0x40\n        /* \"#utility.yul\":7021:7030   */\n      dup4\n        /* \"#utility.yul\":7012:7019   */\n      dup6\n        /* \"#utility.yul\":7008:7031   */\n      sub\n        /* \"#utility.yul\":7004:7036   */\n      slt\n        /* \"#utility.yul\":7001:7120   */\n      iszero\n      tag_171\n      jumpi\n        /* \"#utility.yul\":7039:7118   */\n      tag_172\n      tag_38\n      jump\t// in\n    tag_172:\n        /* \"#utility.yul\":7001:7120   */\n    tag_171:\n        /* \"#utility.yul\":7187:7188   */\n      0x00\n        /* \"#utility.yul\":7176:7185   */\n      dup4\n        /* \"#utility.yul\":7172:7189   */\n      add\n        /* \"#utility.yul\":7159:7190   */\n      calldataload\n        /* \"#utility.yul\":7217:7235   */\n      0xffffffffffffffff\n        /* \"#utility.yul\":7209:7215   */\n      dup2\n        /* \"#utility.yul\":7206:7236   */\n      gt\n        /* \"#utility.yul\":7203:7320   */\n      iszero\n      tag_173\n      jumpi\n        /* \"#utility.yul\":7239:7318   */\n      tag_174\n      tag_39\n      jump\t// in\n    tag_174:\n        /* \"#utility.yul\":7203:7320   */\n    tag_173:\n        /* \"#utility.yul\":7344:7407   */\n      tag_175\n        /* \"#utility.yul\":7399:7406   */\n      dup6\n        /* \"#utility.yul\":7390:7396   */\n      dup3\n        /* \"#utility.yul\":7379:7388   */\n      dup7\n        /* \"#utility.yul\":7375:7397   */\n      add\n        /* \"#utility.yul\":7344:7407   */\n      tag_49\n      jump\t// in\n    tag_175:\n        /* \"#utility.yul\":7334:7407   */\n      swap3\n      pop\n        /* \"#utility.yul\":7130:7417   */\n      pop\n        /* \"#utility.yul\":7456:7458   */\n      0x20\n        /* \"#utility.yul\":7482:7535   */\n      tag_176\n        /* \"#utility.yul\":7527:7534   */\n      dup6\n        /* \"#utility.yul\":7518:7524   */\n      dup3\n        /* \"#utility.yul\":7507:7516   */\n      dup7\n        /* \"#utility.yul\":7503:7525   */\n      add\n        /* \"#utility.yul\":7482:7535   */\n      tag_66\n      jump\t// in\n    tag_176:\n        /* \"#utility.yul\":7472:7535   */\n      swap2\n      pop\n        /* \"#utility.yul\":7427:7545   */\n      pop\n        /* \"#utility.yul\":6898:7552   */\n      swap3\n      pop\n      swap3\n      swap1\n      pop\n      jump\t// out\n        /* \"#utility.yul\":7558:7738   */\n    tag_67:\n        /* \"#utility.yul\":7606:7683   */\n      0x4e487b7100000000000000000000000000000000000000000000000000000000\n        /* \"#utility.yul\":7603:7604   */\n      0x00\n        /* \"#utility.yul\":7596:7684   */\n      mstore\n        /* \"#utility.yul\":7703:7707   */\n      0x22\n        /* \"#utility.yul\":7700:7701   */\n      0x04\n        /* \"#utility.yul\":7693:7708   */\n      mstore\n        /* \"#utility.yul\":7727:7731   */\n      0x24\n        /* \"#utility.yul\":7724:7725   */\n      0x00\n        /* \"#utility.yul\":7717:7732   */\n      revert\n        /* \"#utility.yul\":7744:8064   */\n    tag_21:\n        /* \"#utility.yul\":7788:7794   */\n      0x00\n        /* \"#utility.yul\":7825:7826   */\n      0x02\n        /* \"#utility.yul\":7819:7823   */\n      dup3\n        /* \"#utility.yul\":7815:7827   */\n      div\n        /* \"#utility.yul\":7805:7827   */\n      swap1\n      pop\n        /* \"#utility.yul\":7872:7873   */\n      0x01\n        /* \"#utility.yul\":7866:7870   */\n      dup3\n        /* \"#utility.yul\":7862:7874   */\n      and\n        /* \"#utility.yul\":7893:7911   */\n      dup1\n        /* \"#utility.yul\":7883:7964   */\n      tag_179\n      jumpi\n        /* \"#utility.yul\":7949:7953   */\n      0x7f\n        /* \"#utility.yul\":7941:7947   */\n      dup3\n        /* \"#utility.yul\":7937:7954   */\n      and\n        /* \"#utility.yul\":7927:7954   */\n      swap2\n      pop\n        /* \"#utility.yul\":7883:7964   */\n    tag_179:\n        /* \"#utility.yul\":8011:8013   */\n      0x20\n        /* \"#utility.yul\":8003:8009   */\n      dup3\n        /* \"#utility.yul\":8000:8014   */\n      lt\n        /* \"#utility.yul\":7980:7998   */\n      dup2\n        /* \"#utility.yul\":7977:8015   */\n      sub\n        /* \"#utility.yul\":7974:8058   */\n      tag_180\n      jumpi\n        /* \"#utility.yul\":8030:8048   */\n      tag_181\n      tag_67\n      jump\t// in\n    tag_181:\n        /* \"#utility.yul\":7974:8058   */\n    tag_180:\n        /* \"#utility.yul\":7795:8064   */\n      pop\n        /* \"#utility.yul\":7744:8064   */\n      swap2\n      swap1\n      pop\n      jump\t// out\n        /* \"#utility.yul\":8070:8218   */\n    tag_68:\n        /* \"#utility.yul\":8172:8183   */\n      0x00\n        /* \"#utility.yul\":8209:8212   */\n      dup2\n        /* \"#utility.yul\":8194:8212   */\n      swap1\n      pop\n        /* \"#utility.yul\":8070:8218   */\n      swap3\n      swap2\n      pop\n      pop\n      jump\t// out\n        /* \"#utility.yul\":8224:8614   */\n    tag_69:\n        /* \"#utility.yul\":8330:8333   */\n      0x00\n        /* \"#utility.yul\":8358:8397   */\n      tag_184\n        /* \"#utility.yul\":8391:8396   */\n      dup3\n        /* \"#utility.yul\":8358:8397   */\n      tag_50\n      jump\t// in\n    tag_184:\n        /* \"#utility.yul\":8413:8502   */\n      tag_185\n        /* \"#utility.yul\":8495:8501   */\n      dup2\n        /* \"#utility.yul\":8490:8493   */\n      dup6\n        /* \"#utility.yul\":8413:8502   */\n      tag_68\n      jump\t// in\n    tag_185:\n        /* \"#utility.yul\":8406:8502   */\n      swap4\n      pop\n        /* \"#utility.yul\":8511:8576   */\n      tag_186\n        /* \"#utility.yul\":8569:8575   */\n      dup2\n        /* \"#utility.yul\":8564:8567   */\n      dup6\n        /* \"#utility.yul\":8557:8561   */\n      0x20\n        /* \"#utility.yul\":8550:8555   */\n      dup7\n        /* \"#utility.yul\":8546:8562   */\n      add\n        /* \"#utility.yul\":8511:8576   */\n      tag_52\n      jump\t// in\n    tag_186:\n        /* \"#utility.yul\":8601:8607   */\n      dup1\n        /* \"#utility.yul\":8596:8599   */\n      dup5\n        /* \"#utility.yul\":8592:8608   */\n      add\n        /* \"#utility.yul\":8585:8608   */\n      swap2\n      pop\n        /* \"#utility.yul\":8334:8614   */\n      pop\n        /* \"#utility.yul\":8224:8614   */\n      swap3\n      swap2\n      pop\n      pop\n      jump\t// out\n        /* \"#utility.yul\":8620:8895   */\n    tag_28:\n        /* \"#utility.yul\":8752:8755   */\n      0x00\n        /* \"#utility.yul\":8774:8869   */\n      tag_188\n        /* \"#utility.yul\":8865:8868   */\n      dup3\n        /* \"#utility.yul\":8856:8862   */\n      dup5\n        /* \"#utility.yul\":8774:8869   */\n      tag_69\n      jump\t// in\n    tag_188:\n        /* \"#utility.yul\":8767:8869   */\n      swap2\n      pop\n        /* \"#utility.yul\":8886:8889   */\n      dup2\n        /* \"#utility.yul\":8879:8889   */\n      swap1\n      pop\n        /* \"#utility.yul\":8620:8895   */\n      swap3\n      swap2\n      pop\n      pop\n      jump\t// out\n        /* \"#utility.yul\":8901:9042   */\n    tag_70:\n        /* \"#utility.yul\":8950:8954   */\n      0x00\n        /* \"#utility.yul\":8973:8976   */\n      dup2\n        /* \"#utility.yul\":8965:8976   */\n      swap1\n      pop\n        /* \"#utility.yul\":8996:8999   */\n      dup2\n        /* \"#utility.yul\":8993:8994   */\n      0x00\n        /* \"#utility.yul\":8986:9000   */\n      mstore\n        /* \"#utility.yul\":9030:9034   */\n      0x20\n        /* \"#utility.yul\":9027:9028   */\n      0x00\n        /* \"#utility.yul\":9017:9035   */\n      keccak256\n        /* \"#utility.yul\":9009:9035   */\n      swap1\n      pop\n        /* \"#utility.yul\":8901:9042   */\n      swap2\n      swap1\n      pop\n      jump\t// out\n        /* \"#utility.yul\":9048:9141   */\n    tag_71:\n        /* \"#utility.yul\":9085:9091   */\n      0x00\n        /* \"#utility.yul\":9132:9134   */\n      0x20\n        /* \"#utility.yul\":9127:9129   */\n      0x1f\n        /* \"#utility.yul\":9120:9125   */\n      dup4\n        /* \"#utility.yul\":9116:9130   */\n      add\n        /* \"#utility.yul\":9112:9135   */\n      div\n        /* \"#utility.yul\":9102:9135   */\n      swap1\n      pop\n        /* \"#utility.yul\":9048:9141   */\n      swap2\n      swap1\n      pop\n      jump\t// out\n        /* \"#utility.yul\":9147:9254   */\n    tag_72:\n        /* \"#utility.yul\":9191:9199   */\n      0x00\n        /* \"#utility.yul\":9241:9246   */\n      dup3\n        /* \"#utility.yul\":9235:9239   */\n      dup3\n        /* \"#utility.yul\":9231:9247   */\n      shl\n        /* \"#utility.yul\":9210:9247   */\n      swap1\n      pop\n        /* \"#utility.yul\":9147:9254   */\n      swap3\n      swap2\n      pop\n      pop\n      jump\t// out\n        /* \"#utility.yul\":9260:9653   */\n    tag_73:\n        /* \"#utility.yul\":9329:9335   */\n      0x00\n        /* \"#utility.yul\":9379:9380   */\n      0x08\n        /* \"#utility.yul\":9367:9377   */\n      dup4\n        /* \"#utility.yul\":9363:9381   */\n      mul\n        /* \"#utility.yul\":9402:9499   */\n      tag_193\n        /* \"#utility.yul\":9432:9498   */\n      0xffffffffffffffffffffffffffffffffffffffffffffffffffffffffffffffff\n        /* \"#utility.yul\":9421:9430   */\n      dup3\n        /* \"#utility.yul\":9402:9499   */\n      tag_72\n      jump\t// in\n    tag_193:\n        /* \"#utility.yul\":9520:9559   */\n      tag_194\n        /* \"#utility.yul\":9550:9558   */\n      dup7\n        /* \"#utility.yul\":9539:9548   */\n      dup4\n        /* \"#utility.yul\":9520:9559   */\n      tag_72\n      jump\t// in\n    tag_194:\n        /* \"#utility.yul\":9508:9559   */\n      swap6\n      pop\n        /* \"#utility.yul\":9592:9596   */\n      dup1\n        /* \"#utility.yul\":9588:9597   */\n      not\n        /* \"#utility.yul\":9581:9586   */\n      dup5\n        /* \"#utility.yul\":9577:9598   */\n      and\n        /* \"#utility.yul\":9568:9598   */\n      swap4\n      pop\n        /* \"#utility.yul\":9641:9645   */\n      dup1\n        /* \"#utility.yul\":9631:9639   */\n      dup7\n        /* \"#utility.yul\":9627:9646   */\n      and\n        /* \"#utility.yul\":9620:9625   */\n      dup5\n        /* \"#utility.yul\":9617:9647   */\n      or\n        /* \"#utility.yul\":9607:9647   */\n      swap3\n      pop\n        /* \"#utility.yul\":9336:9653   */\n      pop\n      pop\n        /* \"#utility.yul\":9260:9653   */\n      swap4\n      swap3\n      pop\n      pop\n      pop\n      jump\t// out\n        /* \"#utility.yul\":9659:9719   */\n    tag_74:\n        /* \"#utility.yul\":9687:9690   */\n      0x00\n        /* \"#utility.yul\":9708:9713   */\n      dup2\n        /* \"#utility.yul\":9701:9713   */\n      swap1\n      pop\n        /* \"#utility.yul\":9659:9719   */\n      swap2\n      swap1\n      pop\n      jump\t// out\n        /* \"#utility.yul\":9725:9867   */\n    tag_75:\n        /* \"#utility.yul\":9775:9784   */\n      0x00\n        /* \"#utility.yul\":9808:9861   */\n      tag_197\n        /* \"#utility.yul\":9826:9860   */\n      tag_198\n        /* \"#utility.yul\":9835:9859   */\n      tag_199\n        /* \"#utility.yul\":9853:9858   */\n      dup5\n        /* \"#utility.yul\":9835:9859   */\n      tag_57\n      jump\t// in\n    tag_199:\n        /* \"#utility.yul\":9826:9860   */\n      tag_74\n      jump\t// in\n    tag_198:\n        /* \"#utility.yul\":9808:9861   */\n      tag_57\n      jump\t// in\n    tag_197:\n        /* \"#utility.yul\":9795:9861   */\n      swap1\n      pop\n        /* \"#utility.yul\":9725:9867   */\n      swap2\n      swap1\n      pop\n      jump\t// out\n        /* \"#utility.yul\":9873:9948   */\n    tag_76:\n        /* \"#utility.yul\":9916:9919   */\n      0x00\n        /* \"#utility.yul\":9937:9942   */\n      dup2\n        /* \"#utility.yul\":9930:9942   */\n      swap1\n      pop\n        /* \"#utility.yul\":9873:9948   */\n      swap2\n      swap1\n      pop\n      jump\t// out\n        /* \"#utility.yul\":9954:10223   */\n    tag_77:\n        /* \"#utility.yul\":10064:10103   */\n      tag_202\n        /* \"#utility.yul\":10095:10102   */\n      dup4\n        /* \"#utility.yul\":10064:10103   */\n      tag_75\n      jump\t// in\n    tag_202:\n        /* \"#utility.yul\":10125:10216   */\n      tag_203\n        /* \"#utility.yul\":10174:10215   */\n      tag_204\n        /* \"#utility.yul\":10198:10214   */\n      dup3\n        /* \"#utility.yul\":10174:10215   */\n      tag_76\n      jump\t// in\n    tag_204:\n        /* \"#utility.yul\":10166:10172   */\n      dup5\n        /* \"#utility.yul\":10159:10163   */\n      dup5\n        /* \"#utility.yul\":10153:10164   */\n      sload\n        /* \"#utility.yul\":10125:10216   */\n      tag_73\n      jump\t// in\n    tag_203:\n        /* \"#utility.yul\":10119:10123   */\n      dup3\n        /* \"#utility.yul\":10112:10217   */\n      sstore\n        /* \"#utility.yul\":10030:10223   */\n      pop\n        /* \"#utility.yul\":9954:10223   */\n      pop\n      pop\n      pop\n      jump\t// out\n        /* \"#utility.yul\":10229:10302   */\n    tag_78:\n        /* \"#utility.yul\":10274:10277   */\n      0x00\n        /* \"#utility.yul\":10295:10296   */\n      0x00\n        /* \"#utility.yul\":10288:10296   */\n      swap1\n      pop\n        /* \"#utility.yul\":10229:10302   */\n      swap1\n      jump\t// out\n        /* \"#utility.yul\":10308:10497   */\n    tag_79:\n        /* \"#utility.yul\":10385:10417   */\n      tag_207\n      tag_78\n      jump\t// in\n    tag_207:\n        /* \"#utility.yul\":10426:10491   */\n      tag_208\n        /* \"#utility.yul\":10484:10490   */\n      dup2\n        /* \"#utility.yul\":10476:10482   */\n      dup5\n        /* \"#utility.yul\":10470:10474   */\n      dup5\n        /* \"#utility.yul\":10426:10491   */\n      tag_77\n      jump\t// in\n    tag_208:\n        /* \"#utility.yul\":10361:10497   */\n      pop\n        /* \"#utility.yul\":10308:10497   */\n      pop\n      pop\n      jump\t// out\n        /* \"#utility.yul\":10503:10689   */\n    tag_80:\n        /* \"#utility.yul\":10563:10683   */\n    tag_210:\n        /* \"#utility.yul\":10580:10583   */\n      dup2\n        /* \"#utility.yul\":10573:10578   */\n      dup2\n        /* \"#utility.yul\":10570:10584   */\n      lt\n        /* \"#utility.yul\":10563:10683   */\n      iszero\n      tag_212\n      jumpi\n        /* \"#utility.yul\":10634:10673   */\n      tag_213\n        /* \"#utility.yul\":10671:10672   */\n      0x00\n        /* \"#utility.yul\":10664:10669   */\n      dup3\n        /* \"#utility.yul\":10634:10673   */\n      tag_79\n      jump\t// in\n    tag_213:\n        /* \"#utility.yul\":10607:10608   */\n      0x01\n        /* \"#utility.yul\":10600:10605   */\n      dup2\n        /* \"#utility.yul\":10596:10609   */\n      add\n        /* \"#utility.yul\":10587:10609   */\n      swap1\n      pop\n        /* \"#utility.yul\":10563:10683   */\n      jump(tag_210)\n    tag_212:\n        /* \"#utility.yul\":10503:10689   */\n      pop\n      pop\n      jump\t// out\n        /* \"#utility.yul\":10695:11238   */\n    tag_81:\n        /* \"#utility.yul\":10796:10798   */\n      0x1f\n        /* \"#utility.yul\":10791:10794   */\n      dup3\n        /* \"#utility.yul\":10788:10799   */\n      gt\n        /* \"#utility.yul\":10785:11231   */\n      iszero\n      tag_215\n      jumpi\n        /* \"#utility.yul\":10830:10868   */\n      tag_216\n        /* \"#utility.yul\":10862:10867   */\n      dup2\n        /* \"#utility.yul\":10830:10868   */\n      tag_70\n      jump\t// in\n    tag_216:\n        /* \"#utility.yul\":10914:10943   */\n      tag_217\n        /* \"#utility.yul\":10932:10942   */\n      dup5\n        /* \"#utility.yul\":10914:10943   */\n      tag_71\n      jump\t// in\n    tag_217:\n        /* \"#utility.yul\":10904:10912   */\n      dup2\n        /* \"#utility.yul\":10900:10944   */\n      add\n        /* \"#utility.yul\":11097:11099   */\n      0x20\n        /* \"#utility.yul\":11085:11095   */\n      dup6\n        /* \"#utility.yul\":11082:11100   */\n      lt\n        /* \"#utility.yul\":11079:11128   */\n      iszero\n      tag_218\n      jumpi\n        /* \"#utility.yul\":11118:11126   */\n      dup2\n        /* \"#utility.yul\":11103:11126   */\n      swap1\n      pop\n        /* \"#utility.yul\":11079:11128   */\n    tag_218:\n        /* \"#utility.yul\":11141:11221   */\n      tag_219\n        /* \"#utility.yul\":11197:11219   */\n      tag_220\n        /* \"#utility.yul\":11215:11218   */\n      dup6\n        /* \"#utility.yul\":11197:11219   */\n      tag_71\n      jump\t// in\n    tag_220:\n        /* \"#utility.yul\":11187:11195   */\n      dup4\n        /* \"#utility.yul\":11183:11220   */\n      add\n        /* \"#utility.yul\":11170:11181   */\n      dup3\n        /* \"#utility.yul\":11141:11221   */\n      tag_80\n      jump\t// in\n    tag_219:\n        /* \"#utility.yul\":10800:11231   */\n      pop\n      pop\n        /* \"#utility.yul\":10785:11231   */\n    tag_215:\n        /* \"#utility.yul\":10695:11238   */\n      pop\n      pop\n      pop\n      jump\t// out\n        /* \"#utility.yul\":11244:11361   */\n    tag_82:\n        /* \"#utility.yul\":11298:11306   */\n      0x00\n        /* \"#utility.yul\":11348:11353   */\n      dup3\n        /* \"#utility.yul\":11342:11346   */\n      dup3\n        /* \"#utility.yul\":11338:11354   */\n      shr\n        /* \"#utility.yul\":11317:11354   */\n      swap1\n      pop\n        /* \"#utility.yul\":11244:11361   */\n      swap3\n      swap2\n      pop\n      pop\n      jump\t// out\n        /* \"#utility.yul\":11367:11536   */\n    tag_83:\n        /* \"#utility.yul\":11411:11417   */\n      0x00\n        /* \"#utility.yul\":11444:11495   */\n      tag_223\n        /* \"#utility.yul\":11492:11493   */\n      0x00\n        /* \"#utility.yul\":11488:11494   */\n      not\n        /* \"#utility.yul\":11480:11485   */\n      dup5\n        /* \"#utility.yul\":11477:11478   */\n      0x08\n        /* \"#utility.yul\":11473:11486   */\n      mul\n        /* \"#utility.yul\":11444:11495   */\n      tag_82\n      jump\t// in\n    tag_223:\n        /* \"#utility.yul\":11440:11496   */\n      not\n        /* \"#utility.yul\":11525:11529   */\n      dup1\n        /* \"#utility.yul\":11519:11523   */\n      dup4\n        /* \"#utility.yul\":11515:11530   */\n      and\n        /* \"#utility.yul\":11505:11530   */\n      swap2\n      pop\n        /* \"#utility.yul\":11418:11536   */\n      pop\n        /* \"#utility.yul\":11367:11536   */\n      swap3\n      swap2\n      pop\n      pop\n      jump\t// out\n        /* \"#utility.yul\":11541:11836   */\n    tag_84:\n        /* \"#utility.yul\":11617:11621   */\n      0x00\n        /* \"#utility.yul\":11763:11792   */\n      tag_225\n        /* \"#utility.yul\":11788:11791   */\n      dup4\n        /* \"#utility.yul\":11782:11786   */\n      dup4\n        /* \"#utility.yul\":11763:11792   */\n      tag_83\n      jump\t// in\n    tag_225:\n        /* \"#utility.yul\":11755:11792   */\n      swap2\n      pop\n        /* \"#utility.yul\":11825:11828   */\n      dup3\n        /* \"#utility.yul\":11822:11823   */\n      0x02\n        /* \"#utility.yul\":11818:11829   */\n      mul\n        /* \"#utility.yul\":11812:11816   */\n      dup3\n        /* \"#utility.yul\":11809:11830   */\n      or\n        /* \"#utility.yul\":11801:11830   */\n      swap1\n      pop\n        /* \"#utility.yul\":11541:11836   */\n      swap3\n      swap2\n      pop\n      pop\n      jump\t// out\n        /* \"#utility.yul\":11841:13236   */\n    tag_30:\n        /* \"#utility.yul\":11958:11995   */\n      tag_227\n        /* \"#utility.yul\":11991:11994   */\n      dup3\n        /* \"#utility.yul\":11958:11995   */\n      tag_50\n      jump\t// in\n    tag_227:\n        /* \"#utility.yul\":12060:12078   */\n      0xffffffffffffffff\n        /* \"#utility.yul\":12052:12058   */\n      dup2\n        /* \"#utility.yul\":12049:12079   */\n      gt\n        /* \"#utility.yul\":12046:12102   */\n      iszero\n      tag_228\n      jumpi\n        /* \"#utility.yul\":12082:12100   */\n      tag_229\n      tag_43\n      jump\t// in\n    tag_229:\n        /* \"#utility.yul\":12046:12102   */\n    tag_228:\n        /* \"#utility.yul\":12126:12164   */\n      tag_230\n        /* \"#utility.yul\":12158:12162   */\n      dup3\n        /* \"#utility.yul\":12152:12163   */\n      sload\n        /* \"#utility.yul\":12126:12164   */\n      tag_21\n      jump\t// in\n    tag_230:\n        /* \"#utility.yul\":12211:12278   */\n      tag_231\n        /* \"#utility.yul\":12271:12277   */\n      dup3\n        /* \"#utility.yul\":12263:12269   */\n      dup3\n        /* \"#utility.yul\":12257:12261   */\n      dup6\n        /* \"#utility.yul\":12211:12278   */\n      tag_81\n      jump\t// in\n    tag_231:\n        /* \"#utility.yul\":12305:12306   */\n      0x00\n        /* \"#utility.yul\":12329:12333   */\n      0x20\n        /* \"#utility.yul\":12316:12333   */\n      swap1\n      pop\n        /* \"#utility.yul\":12361:12363   */\n      0x1f\n        /* \"#utility.yul\":12353:12359   */\n      dup4\n        /* \"#utility.yul\":12350:12364   */\n      gt\n        /* \"#utility.yul\":12378:12379   */\n      0x01\n        /* \"#utility.yul\":12373:12991   */\n      dup2\n      eq\n      tag_233\n      jumpi\n        /* \"#utility.yul\":13035:13036   */\n      0x00\n        /* \"#utility.yul\":13052:13058   */\n      dup5\n        /* \"#utility.yul\":13049:13126   */\n      iszero\n      tag_234\n      jumpi\n        /* \"#utility.yul\":13101:13110   */\n      dup3\n        /* \"#utility.yul\":13096:13099   */\n      dup8\n        /* \"#utility.yul\":13092:13111   */\n      add\n        /* \"#utility.yul\":13086:13112   */\n      mload\n        /* \"#utility.yul\":13077:13112   */\n      swap1\n      pop\n        /* \"#utility.yul\":13049:13126   */\n    tag_234:\n        /* \"#utility.yul\":13152:13219   */\n      tag_235\n        /* \"#utility.yul\":13212:13218   */\n      dup6\n        /* \"#utility.yul\":13205:13210   */\n      dup3\n        /* \"#utility.yul\":13152:13219   */\n      tag_84\n      jump\t// in\n    tag_235:\n        /* \"#utility.yul\":13146:13150   */\n      dup7\n        /* \"#utility.yul\":13139:13220   */\n      sstore\n        /* \"#utility.yul\":13008:13230   */\n      pop\n        /* \"#utility.yul\":12343:13230   */\n      jump(tag_232)\n        /* \"#utility.yul\":12373:12991   */\n    tag_233:\n        /* \"#utility.yul\":12425:12429   */\n      0x1f\n        /* \"#utility.yul\":12421:12430   */\n      not\n        /* \"#utility.yul\":12413:12419   */\n      dup5\n        /* \"#utility.yul\":12409:12431   */\n      and\n        /* \"#utility.yul\":12459:12496   */\n      tag_236\n        /* \"#utility.yul\":12491:12495   */\n      dup7\n        /* \"#utility.yul\":12459:12496   */\n      tag_70\n      jump\t// in\n    tag_236:\n        /* \"#utility.yul\":12518:12519   */\n      0x00\n        /* \"#utility.yul\":12532:12740   */\n    tag_237:\n        /* \"#utility.yul\":12546:12553   */\n      dup3\n        /* \"#utility.yul\":12543:12544   */\n      dup2\n        /* \"#utility.yul\":12540:12554   */\n      lt\n        /* \"#utility.yul\":12532:12740   */\n      iszero\n      tag_239\n      jumpi\n        /* \"#utility.yul\":12625:12634   */\n      dup5\n        /* \"#utility.yul\":12620:12623   */\n      dup10\n        /* \"#utility.yul\":12616:12635   */\n      add\n        /* \"#utility.yul\":12610:12636   */\n      mload\n        /* \"#utility.yul\":12602:12608   */\n      dup3\n        /* \"#utility.yul\":12595:12637   */\n      sstore\n        /* \"#utility.yul\":12676:12677   */\n      0x01\n        /* \"#utility.yul\":12668:12674   */\n      dup3\n        /* \"#utility.yul\":12664:12678   */\n      add\n        /* \"#utility.yul\":12654:12678   */\n      swap2\n      pop\n        /* \"#utility.yul\":12723:12725   */\n      0x20\n        /* \"#utility.yul\":12712:12721   */\n      dup6\n        /* \"#utility.yul\":12708:12726   */\n      add\n        /* \"#utility.yul\":12695:12726   */\n      swap5\n      pop\n        /* \"#utility.yul\":12569:12573   */\n      0x20\n        /* \"#utility.yul\":12566:12567   */\n      dup2\n        /* \"#utility.yul\":12562:12574   */\n      add\n        /* \"#utility.yul\":12557:12574   */\n      swap1\n      pop\n        /* \"#utility.yul\":12532:12740   */\n      jump(tag_237)\n    tag_239:\n        /* \"#utility.yul\":12768:12774   */\n      dup7\n        /* \"#utility.yul\":12759:12766   */\n      dup4\n        /* \"#utility.yul\":12756:12775   */\n      lt\n        /* \"#utility.yul\":12753:12932   */\n      iszero\n      tag_240\n      jumpi\n        /* \"#utility.yul\":12826:12835   */\n      dup5\n        /* \"#utility.yul\":12821:12824   */\n      dup10\n        /* \"#utility.yul\":12817:12836   */\n      add\n        /* \"#utility.yul\":12811:12837   */\n      mload\n        /* \"#utility.yul\":12869:12917   */\n      tag_241\n        /* \"#utility.yul\":12911:12915   */\n      0x1f\n        /* \"#utility.yul\":12903:12909   */\n      dup10\n        /* \"#utility.yul\":12899:12916   */\n      and\n        /* \"#utility.yul\":12888:12897   */\n      dup3\n        /* \"#utility.yul\":12869:12917   */\n      tag_83\n      jump\t// in\n    tag_241:\n        /* \"#utility.yul\":12861:12867   */\n      dup4\n        /* \"#utility.yul\":12854:12918   */\n      sstore\n        /* \"#utility.yul\":12776:12932   */\n      pop\n        /* \"#utility.yul\":12753:12932   */\n    tag_240:\n        /* \"#utility.yul\":12978:12979   */\n      0x01\n        /* \"#utility.yul\":12974:12975   */\n      0x02\n        /* \"#utility.yul\":12966:12972   */\n      dup9\n        /* \"#utility.yul\":12962:12976   */\n      mul\n        /* \"#utility.yul\":12958:12980   */\n      add\n        /* \"#utility.yul\":12952:12956   */\n      dup9\n        /* \"#utility.yul\":12945:12981   */\n      sstore\n        /* \"#utility.yul\":12380:12991   */\n      pop\n      pop\n      pop\n        /* \"#utility.yul\":12343:13230   */\n    tag_232:\n      pop\n        /* \"#utility.yul\":11933:13236   */\n      pop\n      pop\n      pop\n        /* \"#utility.yul\":11841:13236   */\n      pop\n      pop\n      jump\t// out\n        /* \"#utility.yul\":13242:13413   */\n    tag_85:\n        /* \"#utility.yul\":13382:13405   */\n      0x596f7520617265206e6f7420746865206f776e65720000000000000000000000\n        /* \"#utility.yul\":13378:13379   */\n      0x00\n        /* \"#utility.yul\":13370:13376   */\n      dup3\n        /* \"#utility.yul\":13366:13380   */\n      add\n        /* \"#utility.yul\":13359:13406   */\n      mstore\n        /* \"#utility.yul\":13242:13413   */\n      pop\n      jump\t// out\n        /* \"#utility.yul\":13419:13785   */\n    tag_86:\n        /* \"#utility.yul\":13561:13564   */\n      0x00\n        /* \"#utility.yul\":13582:13649   */\n      tag_244\n        /* \"#utility.yul\":13646:13648   */\n      0x15\n        /* \"#utility.yul\":13641:13644   */\n      dup4\n        /* \"#utility.yul\":13582:13649   */\n      tag_51\n      jump\t// in\n    tag_244:\n        /* \"#utility.yul\":13575:13649   */\n      swap2\n      pop\n        /* \"#utility.yul\":13658:13751   */\n      tag_245\n        /* \"#utility.yul\":13747:13750   */\n      dup3\n        /* \"#utility.yul\":13658:13751   */\n      tag_85\n      jump\t// in\n    tag_245:\n        /* \"#utility.yul\":13776:13778   */\n      0x20\n        /* \"#utility.yul\":13771:13774   */\n      dup3\n        /* \"#utility.yul\":13767:13779   */\n      add\n        /* \"#utility.yul\":13760:13779   */\n      swap1\n      pop\n        /* \"#utility.yul\":13419:13785   */\n      swap2\n      swap1\n      pop\n      jump\t// out\n        /* \"#utility.yul\":13791:14210   */\n    tag_35:\n        /* \"#utility.yul\":13957:13961   */\n      0x00\n        /* \"#utility.yul\":13995:13997   */\n      0x20\n        /* \"#utility.yul\":13984:13993   */\n      dup3\n        /* \"#utility.yul\":13980:13998   */\n      add\n        /* \"#utility.yul\":13972:13998   */\n      swap1\n      pop\n        /* \"#utility.yul\":14044:14053   */\n      dup2\n        /* \"#utility.yul\":14038:14042   */\n      dup2\n        /* \"#utility.yul\":14034:14054   */\n      sub\n        /* \"#utility.yul\":14030:14031   */\n      0x00\n        /* \"#utility.yul\":14019:14028   */\n      dup4\n        /* \"#utility.yul\":14015:14032   */\n      add\n        /* \"#utility.yul\":14008:14055   */\n      mstore\n        /* \"#utility.yul\":14072:14203   */\n      tag_247\n        /* \"#utility.yul\":14198:14202   */\n      dup2\n        /* \"#utility.yul\":14072:14203   */\n      tag_86\n      jump\t// in\n    tag_247:\n        /* \"#utility.yul\":14064:14203   */\n      swap1\n      pop\n        /* \"#utility.yul\":13791:14210   */\n      swap2\n      swap1\n      pop\n      jump\t// out\n\n    auxdata: 0xa2646970667358221220c3eda03255b5c64636450b2195062a01a41b0a255f99d3ef3f244f49cea0388464736f6c634300081b0033\n}\n",
    "bytecode": {
      "linkReferences": {},
      "object": "6080604052348015600e575f5ffd5b50610b3f8061001c5f395ff3fe608060405234801561000f575f5ffd5b506004361061003f575f3560e01c806329ae0b7f146100435780636c4926a914610076578063f4b96cb014610092575b5f5ffd5b61005d600480360381019061005891906104df565b6100ae565b60405161006d94939291906105f7565b60405180910390f35b610090600480360381019061008b9190610695565b6101a2565b005b6100ac60048036038101906100a7919061072b565b610283565b005b5f818051602081018201805184825260208301602085012081835280955050505050505f91509050805f0180546100e4906107b2565b80601f0160208091040260200160405190810160405280929190818152602001828054610110906107b2565b801561015b5780601f106101325761010080835404028352916020019161015b565b820191905f5260205f20905b81548152906001019060200180831161013e57829003601f168201915b505050505090806001015f9054906101000a900473ffffffffffffffffffffffffffffffffffffffff1690806002015490806003015f9054906101000a900460ff16905084565b60405180608001604052808481526020013373ffffffffffffffffffffffffffffffffffffffff1681526020018381526020018215158152505f846040516101ea919061081c565b90815260200160405180910390205f820151815f01908161020b91906109d2565b506020820151816001015f6101000a81548173ffffffffffffffffffffffffffffffffffffffff021916908373ffffffffffffffffffffffffffffffffffffffff160217905550604082015181600201556060820151816003015f6101000a81548160ff021916908315150217905550905050505050565b3373ffffffffffffffffffffffffffffffffffffffff165f836040516102a9919061081c565b90815260200160405180910390206001015f9054906101000a900473ffffffffffffffffffffffffffffffffffffffff1673ffffffffffffffffffffffffffffffffffffffff1614610330576040517f08c379a000000000000000000000000000000000000000000000000000000000815260040161032790610aeb565b60405180910390fd5b805f83604051610340919061081c565b90815260200160405180910390206001015f6101000a81548173ffffffffffffffffffffffffffffffffffffffff021916908373ffffffffffffffffffffffffffffffffffffffff1602179055505050565b5f604051905090565b5f5ffd5b5f5ffd5b5f5ffd5b5f5ffd5b5f601f19601f8301169050919050565b7f4e487b71000000000000000000000000000000000000000000000000000000005f52604160045260245ffd5b6103f1826103ab565b810181811067ffffffffffffffff821117156104105761040f6103bb565b5b80604052505050565b5f610422610392565b905061042e82826103e8565b919050565b5f67ffffffffffffffff82111561044d5761044c6103bb565b5b610456826103ab565b9050602081019050919050565b828183375f83830152505050565b5f61048361047e84610433565b610419565b90508281526020810184848401111561049f5761049e6103a7565b5b6104aa848285610463565b509392505050565b5f82601f8301126104c6576104c56103a3565b5b81356104d6848260208601610471565b91505092915050565b5f602082840312156104f4576104f361039b565b5b5f82013567ffffffffffffffff8111156105115761051061039f565b5b61051d848285016104b2565b91505092915050565b5f81519050919050565b5f82825260208201905092915050565b8281835e5f83830152505050565b5f61055882610526565b6105628185610530565b9350610572818560208601610540565b61057b816103ab565b840191505092915050565b5f73ffffffffffffffffffffffffffffffffffffffff82169050919050565b5f6105af82610586565b9050919050565b6105bf816105a5565b82525050565b5f819050919050565b6105d7816105c5565b82525050565b5f8115159050919050565b6105f1816105dd565b82525050565b5f6080820190508181035f83015261060f818761054e565b905061061e60208301866105b6565b61062b60408301856105ce565b61063860608301846105e8565b95945050505050565b61064a816105c5565b8114610654575f5ffd5b50565b5f8135905061066581610641565b92915050565b610674816105dd565b811461067e575f5ffd5b50565b5f8135905061068f8161066b565b92915050565b5f5f5f606084860312156106ac576106ab61039b565b5b5f84013567ffffffffffffffff8111156106c9576106c861039f565b5b6106d5868287016104b2565b93505060206106e686828701610657565b92505060406106f786828701610681565b9150509250925092565b61070a816105a5565b8114610714575f5ffd5b50565b5f8135905061072581610701565b92915050565b5f5f604083850312156107415761074061039b565b5b5f83013567ffffffffffffffff81111561075e5761075d61039f565b5b61076a858286016104b2565b925050602061077b85828601610717565b9150509250929050565b7f4e487b71000000000000000000000000000000000000000000000000000000005f52602260045260245ffd5b5f60028204905060018216806107c957607f821691505b6020821081036107dc576107db610785565b5b50919050565b5f81905092915050565b5f6107f682610526565b61080081856107e2565b9350610810818560208601610540565b80840191505092915050565b5f61082782846107ec565b915081905092915050565b5f819050815f5260205f209050919050565b5f6020601f8301049050919050565b5f82821b905092915050565b5f6008830261088e7fffffffffffffffffffffffffffffffffffffffffffffffffffffffffffffffff82610853565b6108988683610853565b95508019841693508086168417925050509392505050565b5f819050919050565b5f6108d36108ce6108c9846105c5565b6108b0565b6105c5565b9050919050565b5f819050919050565b6108ec836108b9565b6109006108f8826108da565b84845461085f565b825550505050565b5f5f905090565b610917610908565b6109228184846108e3565b505050565b5b818110156109455761093a5f8261090f565b600181019050610928565b5050565b601f82111561098a5761095b81610832565b61096484610844565b81016020851015610973578190505b61098761097f85610844565b830182610927565b50505b505050565b5f82821c905092915050565b5f6109aa5f198460080261098f565b1980831691505092915050565b5f6109c2838361099b565b9150826002028217905092915050565b6109db82610526565b67ffffffffffffffff8111156109f4576109f36103bb565b5b6109fe82546107b2565b610a09828285610949565b5f60209050601f831160018114610a3a575f8415610a28578287015190505b610a3285826109b7565b865550610a99565b601f198416610a4886610832565b5f5b82811015610a6f57848901518255600182019150602085019450602081019050610a4a565b86831015610a8c5784890151610a88601f89168261099b565b8355505b6001600288020188555050505b505050505050565b7f596f7520617265206e6f7420746865206f776e657200000000000000000000005f82015250565b5f610ad5601583610530565b9150610ae082610aa1565b602082019050919050565b5f6020820190508181035f830152610b0281610ac9565b905091905056fea2646970667358221220c3eda03255b5c64636450b2195062a01a41b0a255f99d3ef3f244f49cea0388464736f6c634300081b0033",
      "opcodes": "PUSH1 0x80 PUSH1 0x40 MSTORE CALLVALUE DUP1 ISZERO PUSH1 0xE JUMPI PUSH0 PUSH0 REVERT JUMPDEST POP PUSH2 0xB3F DUP1 PUSH2 0x1C PUSH0 CODECOPY PUSH0 RETURN INVALID PUSH1 0x80 PUSH1 0x40 MSTORE CALLVALUE DUP1 ISZERO PUSH2 0xF JUMPI PUSH0 PUSH0 REVERT JUMPDEST POP PUSH1 0x4 CALLDATASIZE LT PUSH2 0x3F JUMPI PUSH0 CALLDATALOAD PUSH1 0xE0 SHR DUP1 PUSH4 0x29AE0B7F EQ PUSH2 0x43 JUMPI DUP1 PUSH4 0x6C4926A9 EQ PUSH2 0x76 JUMPI DUP1 PUSH4 0xF4B96CB0 EQ PUSH2 0x92 JUMPI JUMPDEST PUSH0 PUSH0 REVERT JUMPDEST PUSH2 0x5D PUSH1 0x4 DUP1 CALLDATASIZE SUB DUP2 ADD SWAP1 PUSH2 0x58 SWAP2 SWAP1 PUSH2 0x4DF JUMP JUMPDEST PUSH2 0xAE JUMP JUMPDEST PUSH1 0x40 MLOAD PUSH2 0x6D SWAP5 SWAP4 SWAP3 SWAP2 SWAP1 PUSH2 0x5F7 JUMP JUMPDEST PUSH1 0x40 MLOAD DUP1 SWAP2 SUB SWAP1 RETURN JUMPDEST PUSH2 0x90 PUSH1 0x4 DUP1 CALLDATASIZE SUB DUP2 ADD SWAP1 PUSH2 0x8B SWAP2 SWAP1 PUSH2 0x695 JUMP JUMPDEST PUSH2 0x1A2 JUMP JUMPDEST STOP JUMPDEST PUSH2 0xAC PUSH1 0x4 DUP1 CALLDATASIZE SUB DUP2 ADD SWAP1 PUSH2 0xA7 SWAP2 SWAP1 PUSH2 0x72B JUMP JUMPDEST PUSH2 0x283 JUMP JUMPDEST STOP JUMPDEST PUSH0 DUP2 DUP1 MLOAD PUSH1 0x20 DUP2 ADD DUP3 ADD DUP1 MLOAD DUP5 DUP3 MSTORE PUSH1 0x20 DUP4 ADD PUSH1 0x20 DUP6 ADD KECCAK256 DUP2 DUP4 MSTORE DUP1 SWAP6 POP POP POP POP POP POP PUSH0 SWAP2 POP SWAP1 POP DUP1 PUSH0 ADD DUP1 SLOAD PUSH2 0xE4 SWAP1 PUSH2 0x7B2 JUMP JUMPDEST DUP1 PUSH1 0x1F ADD PUSH1 0x20 DUP1 SWAP2 DIV MUL PUSH1 0x20 ADD PUSH1 0x40 MLOAD SWAP1 DUP2 ADD PUSH1 0x40 MSTORE DUP1 SWAP3 SWAP2 SWAP1 DUP2 DUP2 MSTORE PUSH1 0x20 ADD DUP3 DUP1 SLOAD PUSH2 0x110 SWAP1 PUSH2 0x7B2 JUMP JUMPDEST DUP1 ISZERO PUSH2 0x15B JUMPI DUP1 PUSH1 0x1F LT PUSH2 0x132 JUMPI PUSH2 0x100 DUP1 DUP4 SLOAD DIV MUL DUP4 MSTORE SWAP2 PUSH1 0x20 ADD SWAP2 PUSH2 0x15B JUMP JUMPDEST DUP3 ADD SWAP2 SWAP1 PUSH0 MSTORE PUSH1 0x20 PUSH0 KECCAK256 SWAP1 JUMPDEST DUP2 SLOAD DUP2 MSTORE SWAP1 PUSH1 0x1 ADD SWAP1 PUSH1 0x20 ADD DUP1 DUP4 GT PUSH2 0x13E JUMPI DUP3 SWAP1 SUB PUSH1 0x1F AND DUP3 ADD SWAP2 JUMPDEST POP POP POP POP POP SWAP1 DUP1 PUSH1 0x1 ADD PUSH0 SWAP1 SLOAD SWAP1 PUSH2 0x100 EXP SWAP1 DIV PUSH20 0xFFFFFFFFFFFFFFFFFFFFFFFFFFFFFFFFFFFFFFFF AND SWAP1 DUP1 PUSH1 0x2 ADD SLOAD SWAP1 DUP1 PUSH1 0x3 ADD PUSH0 SWAP1 SLOAD SWAP1 PUSH2 0x100 EXP SWAP1 DIV PUSH1 0xFF AND SWAP1 POP DUP5 JUMP JUMPDEST PUSH1 0x40 MLOAD DUP1 PUSH1 0x80 ADD PUSH1 0x40 MSTORE DUP1 DUP5 DUP2 MSTORE PUSH1 0x20 ADD CALLER PUSH20 0xFFFFFFFFFFFFFFFFFFFFFFFFFFFFFFFFFFFFFFFF AND DUP2 MSTORE PUSH1 0x20 ADD DUP4 DUP2 MSTORE PUSH1 0x20 ADD DUP3 ISZERO ISZERO DUP2 MSTORE POP PUSH0 DUP5 PUSH1 0x40 MLOAD PUSH2 0x1EA SWAP2 SWAP1 PUSH2 0x81C JUMP JUMPDEST SWAP1 DUP2 MSTORE PUSH1 0x20 ADD PUSH1 0x40 MLOAD DUP1 SWAP2 SUB SWAP1 KECCAK256 PUSH0 DUP3 ADD MLOAD DUP2 PUSH0 ADD SWAP1 DUP2 PUSH2 0x20B SWAP2 SWAP1 PUSH2 0x9D2 JUMP JUMPDEST POP PUSH1 0x20 DUP3 ADD MLOAD DUP2 PUSH1 0x1 ADD PUSH0 PUSH2 0x100 EXP DUP2 SLOAD DUP2 PUSH20 0xFFFFFFFFFFFFFFFFFFFFFFFFFFFFFFFFFFFFFFFF MUL NOT AND SWAP1 DUP4 PUSH20 0xFFFFFFFFFFFFFFFFFFFFFFFFFFFFFFFFFFFFFFFF AND MUL OR SWAP1 SSTORE POP PUSH1 0x40 DUP3 ADD MLOAD DUP2 PUSH1 0x2 ADD SSTORE PUSH1 0x60 DUP3 ADD MLOAD DUP2 PUSH1 0x3 ADD PUSH0 PUSH2 0x100 EXP DUP2 SLOAD DUP2 PUSH1 0xFF MUL NOT AND SWAP1 DUP4 ISZERO ISZERO MUL OR SWAP1 SSTORE POP SWAP1 POP POP POP POP POP JUMP JUMPDEST CALLER PUSH20 0xFFFFFFFFFFFFFFFFFFFFFFFFFFFFFFFFFFFFFFFF AND PUSH0 DUP4 PUSH1 0x40 MLOAD PUSH2 0x2A9 SWAP2 SWAP1 PUSH2 0x81C JUMP JUMPDEST SWAP1 DUP2 MSTORE PUSH1 0x20 ADD PUSH1 0x40 MLOAD DUP1 SWAP2 SUB SWAP1 KECCAK256 PUSH1 0x1 ADD PUSH0 SWAP1 SLOAD SWAP1 PUSH2 0x100 EXP SWAP1 DIV PUSH20 0xFFFFFFFFFFFFFFFFFFFFFFFFFFFFFFFFFFFFFFFF AND PUSH20 0xFFFFFFFFFFFFFFFFFFFFFFFFFFFFFFFFFFFFFFFF AND EQ PUSH2 0x330 JUMPI PUSH1 0x40 MLOAD PUSH32 0x8C379A000000000000000000000000000000000000000000000000000000000 DUP2 MSTORE PUSH1 0x4 ADD PUSH2 0x327 SWAP1 PUSH2 0xAEB JUMP JUMPDEST PUSH1 0x40 MLOAD DUP1 SWAP2 SUB SWAP1 REVERT JUMPDEST DUP1 PUSH0 DUP4 PUSH1 0x40 MLOAD PUSH2 0x340 SWAP2 SWAP1 PUSH2 0x81C JUMP JUMPDEST SWAP1 DUP2 MSTORE PUSH1 0x20 ADD PUSH1 0x40 MLOAD DUP1 SWAP2 SUB SWAP1 KECCAK256 PUSH1 0x1 ADD PUSH0 PUSH2 0x100 EXP DUP2 SLOAD DUP2 PUSH20 0xFFFFFFFFFFFFFFFFFFFFFFFFFFFFFFFFFFFFFFFF MUL NOT AND SWAP1 DUP4 PUSH20 0xFFFFFFFFFFFFFFFFFFFFFFFFFFFFFFFFFFFFFFFF AND MUL OR SWAP1 SSTORE POP POP POP JUMP JUMPDEST PUSH0 PUSH1 0x40 MLOAD SWAP1 POP SWAP1 JUMP JUMPDEST PUSH0 PUSH0 REVERT JUMPDEST PUSH0 PUSH0 REVERT JUMPDEST PUSH0 PUSH0 REVERT JUMPDEST PUSH0 PUSH0 REVERT JUMPDEST PUSH0 PUSH1 0x1F NOT PUSH1 0x1F DUP4 ADD AND SWAP1 POP SWAP2 SWAP1 POP JUMP JUMPDEST PUSH32 0x4E487B7100000000000000000000000000000000000000000000000000000000 PUSH0 MSTORE PUSH1 0x41 PUSH1 0x4 MSTORE PUSH1 0x24 PUSH0 REVERT JUMPDEST PUSH2 0x3F1 DUP3 PUSH2 0x3AB JUMP JUMPDEST DUP2 ADD DUP2 DUP2 LT PUSH8 0xFFFFFFFFFFFFFFFF DUP3 GT OR ISZERO PUSH2 0x410 JUMPI PUSH2 0x40F PUSH2 0x3BB JUMP JUMPDEST JUMPDEST DUP1 PUSH1 0x40 MSTORE POP POP POP JUMP JUMPDEST PUSH0 PUSH2 0x422 PUSH2 0x392 JUMP JUMPDEST SWAP1 POP PUSH2 0x42E DUP3 DUP3 PUSH2 0x3E8 JUMP JUMPDEST SWAP2 SWAP1 POP JUMP JUMPDEST PUSH0 PUSH8 0xFFFFFFFFFFFFFFFF DUP3 GT ISZERO PUSH2 0x44D JUMPI PUSH2 0x44C PUSH2 0x3BB JUMP JUMPDEST JUMPDEST PUSH2 0x456 DUP3 PUSH2 0x3AB JUMP JUMPDEST SWAP1 POP PUSH1 0x20 DUP2 ADD SWAP1 POP SWAP2 SWAP1 POP JUMP JUMPDEST DUP3 DUP2 DUP4 CALLDATACOPY PUSH0 DUP4 DUP4 ADD MSTORE POP POP POP JUMP JUMPDEST PUSH0 PUSH2 0x483 PUSH2 0x47E DUP5 PUSH2 0x433 JUMP JUMPDEST PUSH2 0x419 JUMP JUMPDEST SWAP1 POP DUP3 DUP2 MSTORE PUSH1 0x20 DUP2 ADD DUP5 DUP5 DUP5 ADD GT ISZERO PUSH2 0x49F JUMPI PUSH2 0x49E PUSH2 0x3A7 JUMP JUMPDEST JUMPDEST PUSH2 0x4AA DUP5 DUP3 DUP6 PUSH2 0x463 JUMP JUMPDEST POP SWAP4 SWAP3 POP POP POP JUMP JUMPDEST PUSH0 DUP3 PUSH1 0x1F DUP4 ADD SLT PUSH2 0x4C6 JUMPI PUSH2 0x4C5 PUSH2 0x3A3 JUMP JUMPDEST JUMPDEST DUP2 CALLDATALOAD PUSH2 0x4D6 DUP5 DUP3 PUSH1 0x20 DUP7 ADD PUSH2 0x471 JUMP JUMPDEST SWAP2 POP POP SWAP3 SWAP2 POP POP JUMP JUMPDEST PUSH0 PUSH1 0x20 DUP3 DUP5 SUB SLT ISZERO PUSH2 0x4F4 JUMPI PUSH2 0x4F3 PUSH2 0x39B JUMP JUMPDEST JUMPDEST PUSH0 DUP3 ADD CALLDATALOAD PUSH8 0xFFFFFFFFFFFFFFFF DUP2 GT ISZERO PUSH2 0x511 JUMPI PUSH2 0x510 PUSH2 0x39F JUMP JUMPDEST JUMPDEST PUSH2 0x51D DUP5 DUP3 DUP6 ADD PUSH2 0x4B2 JUMP JUMPDEST SWAP2 POP POP SWAP3 SWAP2 POP POP JUMP JUMPDEST PUSH0 DUP2 MLOAD SWAP1 POP SWAP2 SWAP1 POP JUMP JUMPDEST PUSH0 DUP3 DUP3 MSTORE PUSH1 0x20 DUP3 ADD SWAP1 POP SWAP3 SWAP2 POP POP JUMP JUMPDEST DUP3 DUP2 DUP4 MCOPY PUSH0 DUP4 DUP4 ADD MSTORE POP POP POP JUMP JUMPDEST PUSH0 PUSH2 0x558 DUP3 PUSH2 0x526 JUMP JUMPDEST PUSH2 0x562 DUP2 DUP6 PUSH2 0x530 JUMP JUMPDEST SWAP4 POP PUSH2 0x572 DUP2 DUP6 PUSH1 0x20 DUP7 ADD PUSH2 0x540 JUMP JUMPDEST PUSH2 0x57B DUP2 PUSH2 0x3AB JUMP JUMPDEST DUP5 ADD SWAP2 POP POP SWAP3 SWAP2 POP POP JUMP JUMPDEST PUSH0 PUSH20 0xFFFFFFFFFFFFFFFFFFFFFFFFFFFFFFFFFFFFFFFF DUP3 AND SWAP1 POP SWAP2 SWAP1 POP JUMP JUMPDEST PUSH0 PUSH2 0x5AF DUP3 PUSH2 0x586 JUMP JUMPDEST SWAP1 POP SWAP2 SWAP1 POP JUMP JUMPDEST PUSH2 0x5BF DUP2 PUSH2 0x5A5 JUMP JUMPDEST DUP3 MSTORE POP POP JUMP JUMPDEST PUSH0 DUP2 SWAP1 POP SWAP2 SWAP1 POP JUMP JUMPDEST PUSH2 0x5D7 DUP2 PUSH2 0x5C5 JUMP JUMPDEST DUP3 MSTORE POP POP JUMP JUMPDEST PUSH0 DUP2 ISZERO ISZERO SWAP1 POP SWAP2 SWAP1 POP JUMP JUMPDEST PUSH2 0x5F1 DUP2 PUSH2 0x5DD JUMP JUMPDEST DUP3 MSTORE POP POP JUMP JUMPDEST PUSH0 PUSH1 0x80 DUP3 ADD SWAP1 POP DUP2 DUP2 SUB PUSH0 DUP4 ADD MSTORE PUSH2 0x60F DUP2 DUP8 PUSH2 0x54E JUMP JUMPDEST SWAP1 POP PUSH2 0x61E PUSH1 0x20 DUP4 ADD DUP7 PUSH2 0x5B6 JUMP JUMPDEST PUSH2 0x62B PUSH1 0x40 DUP4 ADD DUP6 PUSH2 0x5CE JUMP JUMPDEST PUSH2 0x638 PUSH1 0x60 DUP4 ADD DUP5 PUSH2 0x5E8 JUMP JUMPDEST SWAP6 SWAP5 POP POP POP POP POP JUMP JUMPDEST PUSH2 0x64A DUP2 PUSH2 0x5C5 JUMP JUMPDEST DUP2 EQ PUSH2 0x654 JUMPI PUSH0 PUSH0 REVERT JUMPDEST POP JUMP JUMPDEST PUSH0 DUP2 CALLDATALOAD SWAP1 POP PUSH2 0x665 DUP2 PUSH2 0x641 JUMP JUMPDEST SWAP3 SWAP2 POP POP JUMP JUMPDEST PUSH2 0x674 DUP2 PUSH2 0x5DD JUMP JUMPDEST DUP2 EQ PUSH2 0x67E JUMPI PUSH0 PUSH0 REVERT JUMPDEST POP JUMP JUMPDEST PUSH0 DUP2 CALLDATALOAD SWAP1 POP PUSH2 0x68F DUP2 PUSH2 0x66B JUMP JUMPDEST SWAP3 SWAP2 POP POP JUMP JUMPDEST PUSH0 PUSH0 PUSH0 PUSH1 0x60 DUP5 DUP7 SUB SLT ISZERO PUSH2 0x6AC JUMPI PUSH2 0x6AB PUSH2 0x39B JUMP JUMPDEST JUMPDEST PUSH0 DUP5 ADD CALLDATALOAD PUSH8 0xFFFFFFFFFFFFFFFF DUP2 GT ISZERO PUSH2 0x6C9 JUMPI PUSH2 0x6C8 PUSH2 0x39F JUMP JUMPDEST JUMPDEST PUSH2 0x6D5 DUP7 DUP3 DUP8 ADD PUSH2 0x4B2 JUMP JUMPDEST SWAP4 POP POP PUSH1 0x20 PUSH2 0x6E6 DUP7 DUP3 DUP8 ADD PUSH2 0x657 JUMP JUMPDEST SWAP3 POP POP PUSH1 0x40 PUSH2 0x6F7 DUP7 DUP3 DUP8 ADD PUSH2 0x681 JUMP JUMPDEST SWAP2 POP POP SWAP3 POP SWAP3 POP SWAP3 JUMP JUMPDEST PUSH2 0x70A DUP2 PUSH2 0x5A5 JUMP JUMPDEST DUP2 EQ PUSH2 0x714 JUMPI PUSH0 PUSH0 REVERT JUMPDEST POP JUMP JUMPDEST PUSH0 DUP2 CALLDATALOAD SWAP1 POP PUSH2 0x725 DUP2 PUSH2 0x701 JUMP JUMPDEST SWAP3 SWAP2 POP POP JUMP JUMPDEST PUSH0 PUSH0 PUSH1 0x40 DUP4 DUP6 SUB SLT ISZERO PUSH2 0x741 JUMPI PUSH2 0x740 PUSH2 0x39B JUMP JUMPDEST JUMPDEST PUSH0 DUP4 ADD CALLDATALOAD PUSH8 0xFFFFFFFFFFFFFFFF DUP2 GT ISZERO PUSH2 0x75E JUMPI PUSH2 0x75D PUSH2 0x39F JUMP JUMPDEST JUMPDEST PUSH2 0x76A DUP6 DUP3 DUP7 ADD PUSH2 0x4B2 JUMP JUMPDEST SWAP3 POP POP PUSH1 0x20 PUSH2 0x77B DUP6 DUP3 DUP7 ADD PUSH2 0x717 JUMP JUMPDEST SWAP2 POP POP SWAP3 POP SWAP3 SWAP1 POP JUMP JUMPDEST PUSH32 0x4E487B7100000000000000000000000000000000000000000000000000000000 PUSH0 MSTORE PUSH1 0x22 PUSH1 0x4 MSTORE PUSH1 0x24 PUSH0 REVERT JUMPDEST PUSH0 PUSH1 0x2 DUP3 DIV SWAP1 POP PUSH1 0x1 DUP3 AND DUP1 PUSH2 0x7C9 JUMPI PUSH1 0x7F DUP3 AND SWAP2 POP JUMPDEST PUSH1 0x20 DUP3 LT DUP2 SUB PUSH2 0x7DC JUMPI PUSH2 0x7DB PUSH2 0x785 JUMP JUMPDEST JUMPDEST POP SWAP2 SWAP1 POP JUMP JUMPDEST PUSH0 DUP2 SWAP1 POP SWAP3 SWAP2 POP POP JUMP JUMPDEST PUSH0 PUSH2 0x7F6 DUP3 PUSH2 0x526 JUMP JUMPDEST PUSH2 0x800 DUP2 DUP6 PUSH2 0x7E2 JUMP JUMPDEST SWAP4 POP PUSH2 0x810 DUP2 DUP6 PUSH1 0x20 DUP7 ADD PUSH2 0x540 JUMP JUMPDEST DUP1 DUP5 ADD SWAP2 POP POP SWAP3 SWAP2 POP POP JUMP JUMPDEST PUSH0 PUSH2 0x827 DUP3 DUP5 PUSH2 0x7EC JUMP JUMPDEST SWAP2 POP DUP2 SWAP1 POP SWAP3 SWAP2 POP POP JUMP JUMPDEST PUSH0 DUP2 SWAP1 POP DUP2 PUSH0 MSTORE PUSH1 0x20 PUSH0 KECCAK256 SWAP1 POP SWAP2 SWAP1 POP JUMP JUMPDEST PUSH0 PUSH1 0x20 PUSH1 0x1F DUP4 ADD DIV SWAP1 POP SWAP2 SWAP1 POP JUMP JUMPDEST PUSH0 DUP3 DUP3 SHL SWAP1 POP SWAP3 SWAP2 POP POP JUMP JUMPDEST PUSH0 PUSH1 0x8 DUP4 MUL PUSH2 0x88E PUSH32 0xFFFFFFFFFFFFFFFFFFFFFFFFFFFFFFFFFFFFFFFFFFFFFFFFFFFFFFFFFFFFFFFF DUP3 PUSH2 0x853 JUMP JUMPDEST PUSH2 0x898 DUP7 DUP4 PUSH2 0x853 JUMP JUMPDEST SWAP6 POP DUP1 NOT DUP5 AND SWAP4 POP DUP1 DUP7 AND DUP5 OR SWAP3 POP POP POP SWAP4 SWAP3 POP POP POP JUMP JUMPDEST PUSH0 DUP2 SWAP1 POP SWAP2 SWAP1 POP JUMP JUMPDEST PUSH0 PUSH2 0x8D3 PUSH2 0x8CE PUSH2 0x8C9 DUP5 PUSH2 0x5C5 JUMP JUMPDEST PUSH2 0x8B0 JUMP JUMPDEST PUSH2 0x5C5 JUMP JUMPDEST SWAP1 POP SWAP2 SWAP1 POP JUMP JUMPDEST PUSH0 DUP2 SWAP1 POP SWAP2 SWAP1 POP JUMP JUMPDEST PUSH2 0x8EC DUP4 PUSH2 0x8B9 JUMP JUMPDEST PUSH2 0x900 PUSH2 0x8F8 DUP3 PUSH2 0x8DA JUMP JUMPDEST DUP5 DUP5 SLOAD PUSH2 0x85F JUMP JUMPDEST DUP3 SSTORE POP POP POP POP JUMP JUMPDEST PUSH0 PUSH0 SWAP1 POP SWAP1 JUMP JUMPDEST PUSH2 0x917 PUSH2 0x908 JUMP JUMPDEST PUSH2 0x922 DUP2 DUP5 DUP5 PUSH2 0x8E3 JUMP JUMPDEST POP POP POP JUMP JUMPDEST JUMPDEST DUP2 DUP2 LT ISZERO PUSH2 0x945 JUMPI PUSH2 0x93A PUSH0 DUP3 PUSH2 0x90F JUMP JUMPDEST PUSH1 0x1 DUP2 ADD SWAP1 POP PUSH2 0x928 JUMP JUMPDEST POP POP JUMP JUMPDEST PUSH1 0x1F DUP3 GT ISZERO PUSH2 0x98A JUMPI PUSH2 0x95B DUP2 PUSH2 0x832 JUMP JUMPDEST PUSH2 0x964 DUP5 PUSH2 0x844 JUMP JUMPDEST DUP2 ADD PUSH1 0x20 DUP6 LT ISZERO PUSH2 0x973 JUMPI DUP2 SWAP1 POP JUMPDEST PUSH2 0x987 PUSH2 0x97F DUP6 PUSH2 0x844 JUMP JUMPDEST DUP4 ADD DUP3 PUSH2 0x927 JUMP JUMPDEST POP POP JUMPDEST POP POP POP JUMP JUMPDEST PUSH0 DUP3 DUP3 SHR SWAP1 POP SWAP3 SWAP2 POP POP JUMP JUMPDEST PUSH0 PUSH2 0x9AA PUSH0 NOT DUP5 PUSH1 0x8 MUL PUSH2 0x98F JUMP JUMPDEST NOT DUP1 DUP4 AND SWAP2 POP POP SWAP3 SWAP2 POP POP JUMP JUMPDEST PUSH0 PUSH2 0x9C2 DUP4 DUP4 PUSH2 0x99B JUMP JUMPDEST SWAP2 POP DUP3 PUSH1 0x2 MUL DUP3 OR SWAP1 POP SWAP3 SWAP2 POP POP JUMP JUMPDEST PUSH2 0x9DB DUP3 PUSH2 0x526 JUMP JUMPDEST PUSH8 0xFFFFFFFFFFFFFFFF DUP2 GT ISZERO PUSH2 0x9F4 JUMPI PUSH2 0x9F3 PUSH2 0x3BB JUMP JUMPDEST JUMPDEST PUSH2 0x9FE DUP3 SLOAD PUSH2 0x7B2 JUMP JUMPDEST PUSH2 0xA09 DUP3 DUP3 DUP6 PUSH2 0x949 JUMP JUMPDEST PUSH0 PUSH1 0x20 SWAP1 POP PUSH1 0x1F DUP4 GT PUSH1 0x1 DUP2 EQ PUSH2 0xA3A JUMPI PUSH0 DUP5 ISZERO PUSH2 0xA28 JUMPI DUP3 DUP8 ADD MLOAD SWAP1 POP JUMPDEST PUSH2 0xA32 DUP6 DUP3 PUSH2 0x9B7 JUMP JUMPDEST DUP7 SSTORE POP PUSH2 0xA99 JUMP JUMPDEST PUSH1 0x1F NOT DUP5 AND PUSH2 0xA48 DUP7 PUSH2 0x832 JUMP JUMPDEST PUSH0 JUMPDEST DUP3 DUP2 LT ISZERO PUSH2 0xA6F JUMPI DUP5 DUP10 ADD MLOAD DUP3 SSTORE PUSH1 0x1 DUP3 ADD SWAP2 POP PUSH1 0x20 DUP6 ADD SWAP5 POP PUSH1 0x20 DUP2 ADD SWAP1 POP PUSH2 0xA4A JUMP JUMPDEST DUP7 DUP4 LT ISZERO PUSH2 0xA8C JUMPI DUP5 DUP10 ADD MLOAD PUSH2 0xA88 PUSH1 0x1F DUP10 AND DUP3 PUSH2 0x99B JUMP JUMPDEST DUP4 SSTORE POP JUMPDEST PUSH1 0x1 PUSH1 0x2 DUP9 MUL ADD DUP9 SSTORE POP POP POP JUMPDEST POP POP POP POP POP POP JUMP JUMPDEST PUSH32 0x596F7520617265206E6F7420746865206F776E65720000000000000000000000 PUSH0 DUP3 ADD MSTORE POP JUMP JUMPDEST PUSH0 PUSH2 0xAD5 PUSH1 0x15 DUP4 PUSH2 0x530 JUMP JUMPDEST SWAP2 POP PUSH2 0xAE0 DUP3 PUSH2 0xAA1 JUMP JUMPDEST PUSH1 0x20 DUP3 ADD SWAP1 POP SWAP2 SWAP1 POP JUMP JUMPDEST PUSH0 PUSH1 0x20 DUP3 ADD SWAP1 POP DUP2 DUP2 SUB PUSH0 DUP4 ADD MSTORE PUSH2 0xB02 DUP2 PUSH2 0xAC9 JUMP JUMPDEST SWAP1 POP SWAP2 SWAP1 POP JUMP INVALID LOG2 PUSH5 0x6970667358 0x22 SLT KECCAK256 0xC3 0xED LOG0 ORIGIN SSTORE 0xB5 0xC6 CHAINID CALLDATASIZE GASLIMIT SIGNEXTEND 0x21 SWAP6 MOD 0x2A ADD LOG4 SHL EXP 0x25 PUSH0 SWAP10 0xD3 0xEF EXTCODEHASH 0x24 0x4F BLOBHASH 0xCE LOG0 CODESIZE DUP5 PUSH5 0x736F6C6343 STOP ADDMOD SHL STOP CALLER "
    },
    "gasEstimates": {
      "creation": {
        "codeDepositCost": "575800",
        "executionCost": "604",
        "totalCost": "576404"
      },
      "external": {
        "createTicket(string,uint256,bool)": "infinite",
        "tickets(string)": "infinite",
        "transferTicket(string,address)": "infinite"
      }
    },
    "methodIdentifiers": {
      "createTicket(string,uint256,bool)": "6c4926a9",
      "tickets(string)": "29ae0b7f",
      "transferTicket(string,address)": "f4b96cb0"
    }
  },
  "storageLayout": {
    "storage": [
      {
        "astId": 15,
        "contract": "Ticketing.sol:Ticketing",
        "label": "tickets",
        "offset": 0,
        "slot": "0",
        "type": "t_mapping(t_string_memory_ptr,t_struct(Ticket)10_storage)"
      }
    ],
    "types": {
      "t_address": {
        "encoding": "inplace",
        "label": "address",
        "numberOfBytes": "20"
      },
      "t_bool": {
        "encoding": "inplace",
        "label": "bool",
        "numberOfBytes": "1"
      },
      "t_mapping(t_string_memory_ptr,t_struct(Ticket)10_storage)": {
        "encoding": "mapping",
        "key": "t_string_memory_ptr",
        "label": "mapping(string => struct Ticketing.Ticket)",
        "numberOfBytes": "32",
        "value": "t_struct(Ticket)10_storage"
      },
      "t_string_memory_ptr": {
        "encoding": "bytes",
        "label": "string",
        "numberOfBytes": "32"
      },
      "t_string_storage": {
        "encoding": "bytes",
        "label": "string",
        "numberOfBytes": "32"
      },
      "t_struct(Ticket)10_storage": {
        "encoding": "inplace",
        "label": "struct Ticketing.Ticket",
        "members": [
          {
            "astId": 3,
            "contract": "Ticketing.sol:Ticketing",
            "label": "ticketId",
            "offset": 0,
            "slot": "0",
            "type": "t_string_storage"
          },
          {
            "astId": 5,
            "contract": "Ticketing.sol:Ticketing",
            "label": "owner",
            "offset": 0,
            "slot": "1",
            "type": "t_address"
          },
          {
            "astId": 7,
            "contract": "Ticketing.sol:Ticketing",
            "label": "price",
            "offset": 0,
            "slot": "2",
            "type": "t_uint256"
          },
          {
            "astId": 9,
            "contract": "Ticketing.sol:Ticketing",
            "label": "isResellable",
            "offset": 0,
            "slot": "3",
            "type": "t_bool"
          }
        ],
        "numberOfBytes": "128"
      },
      "t_uint256": {
        "encoding": "inplace",
        "label": "uint256",
        "numberOfBytes": "32"
      }
    }
  },
  "transientStorageLayout": {
    "storage": [],
    "types": null
  },
  "userdoc": {
    "kind": "user",
    "methods": {},
    "version": 1
  }
}